{
  "_format": "hh-sol-artifact-1",
  "contractName": "MaidsItem1155",
  "sourceName": "contracts/MaidsItem1155.sol",
  "abi": [
    {
      "inputs": [
        {
          "internalType": "string",
          "name": "uri_",
          "type": "string"
        }
      ],
      "stateMutability": "nonpayable",
      "type": "constructor"
    },
    {
      "anonymous": false,
      "inputs": [
        {
          "indexed": true,
          "internalType": "address",
          "name": "account",
          "type": "address"
        },
        {
          "indexed": true,
          "internalType": "address",
          "name": "operator",
          "type": "address"
        },
        {
          "indexed": false,
          "internalType": "bool",
          "name": "approved",
          "type": "bool"
        }
      ],
      "name": "ApprovalForAll",
      "type": "event"
    },
    {
      "anonymous": false,
      "inputs": [
        {
          "indexed": true,
          "internalType": "address",
          "name": "previousOwner",
          "type": "address"
        },
        {
          "indexed": true,
          "internalType": "address",
          "name": "newOwner",
          "type": "address"
        }
      ],
      "name": "OwnershipTransferred",
      "type": "event"
    },
    {
      "anonymous": false,
      "inputs": [
        {
          "indexed": true,
          "internalType": "address",
          "name": "operator",
          "type": "address"
        },
        {
          "indexed": true,
          "internalType": "address",
          "name": "from",
          "type": "address"
        },
        {
          "indexed": true,
          "internalType": "address",
          "name": "to",
          "type": "address"
        },
        {
          "indexed": false,
          "internalType": "uint256[]",
          "name": "ids",
          "type": "uint256[]"
        },
        {
          "indexed": false,
          "internalType": "uint256[]",
          "name": "values",
          "type": "uint256[]"
        }
      ],
      "name": "TransferBatch",
      "type": "event"
    },
    {
      "anonymous": false,
      "inputs": [
        {
          "indexed": true,
          "internalType": "address",
          "name": "operator",
          "type": "address"
        },
        {
          "indexed": true,
          "internalType": "address",
          "name": "from",
          "type": "address"
        },
        {
          "indexed": true,
          "internalType": "address",
          "name": "to",
          "type": "address"
        },
        {
          "indexed": false,
          "internalType": "uint256",
          "name": "id",
          "type": "uint256"
        },
        {
          "indexed": false,
          "internalType": "uint256",
          "name": "value",
          "type": "uint256"
        }
      ],
      "name": "TransferSingle",
      "type": "event"
    },
    {
      "anonymous": false,
      "inputs": [
        {
          "indexed": false,
          "internalType": "string",
          "name": "value",
          "type": "string"
        },
        {
          "indexed": true,
          "internalType": "uint256",
          "name": "id",
          "type": "uint256"
        }
      ],
      "name": "URI",
      "type": "event"
    },
    {
      "inputs": [
        {
          "internalType": "address",
          "name": "addr_",
          "type": "address"
        }
      ],
      "name": "addOperator",
      "outputs": [],
      "stateMutability": "nonpayable",
      "type": "function"
    },
    {
      "inputs": [
        {
          "internalType": "address",
          "name": "account",
          "type": "address"
        },
        {
          "internalType": "uint256",
          "name": "id",
          "type": "uint256"
        }
      ],
      "name": "balanceOf",
      "outputs": [
        {
          "internalType": "uint256",
          "name": "",
          "type": "uint256"
        }
      ],
      "stateMutability": "view",
      "type": "function"
    },
    {
      "inputs": [
        {
          "internalType": "address[]",
          "name": "accounts",
          "type": "address[]"
        },
        {
          "internalType": "uint256[]",
          "name": "ids",
          "type": "uint256[]"
        }
      ],
      "name": "balanceOfBatch",
      "outputs": [
        {
          "internalType": "uint256[]",
          "name": "",
          "type": "uint256[]"
        }
      ],
      "stateMutability": "view",
      "type": "function"
    },
    {
      "inputs": [
        {
          "internalType": "address",
          "name": "account",
          "type": "address"
        },
        {
          "internalType": "address",
          "name": "operator",
          "type": "address"
        }
      ],
      "name": "isApprovedForAll",
      "outputs": [
        {
          "internalType": "bool",
          "name": "",
          "type": "bool"
        }
      ],
      "stateMutability": "view",
      "type": "function"
    },
    {
      "inputs": [
        {
          "internalType": "address",
          "name": "to_",
          "type": "address"
        },
        {
          "internalType": "uint256",
          "name": "id_",
          "type": "uint256"
        },
        {
          "internalType": "uint256",
          "name": "amount_",
          "type": "uint256"
        }
      ],
      "name": "mint",
      "outputs": [],
      "stateMutability": "nonpayable",
      "type": "function"
    },
    {
      "inputs": [],
      "name": "owner",
      "outputs": [
        {
          "internalType": "address",
          "name": "",
          "type": "address"
        }
      ],
      "stateMutability": "view",
      "type": "function"
    },
    {
      "inputs": [
        {
          "internalType": "address",
          "name": "addr_",
          "type": "address"
        }
      ],
      "name": "removeOperator",
      "outputs": [],
      "stateMutability": "nonpayable",
      "type": "function"
    },
    {
      "inputs": [],
      "name": "renounceOwnership",
      "outputs": [],
      "stateMutability": "nonpayable",
      "type": "function"
    },
    {
      "inputs": [
        {
          "internalType": "address",
          "name": "from",
          "type": "address"
        },
        {
          "internalType": "address",
          "name": "to",
          "type": "address"
        },
        {
          "internalType": "uint256[]",
          "name": "ids",
          "type": "uint256[]"
        },
        {
          "internalType": "uint256[]",
          "name": "amounts",
          "type": "uint256[]"
        },
        {
          "internalType": "bytes",
          "name": "data",
          "type": "bytes"
        }
      ],
      "name": "safeBatchTransferFrom",
      "outputs": [],
      "stateMutability": "nonpayable",
      "type": "function"
    },
    {
      "inputs": [
        {
          "internalType": "address",
          "name": "from",
          "type": "address"
        },
        {
          "internalType": "address",
          "name": "to",
          "type": "address"
        },
        {
          "internalType": "uint256",
          "name": "id",
          "type": "uint256"
        },
        {
          "internalType": "uint256",
          "name": "amount",
          "type": "uint256"
        },
        {
          "internalType": "bytes",
          "name": "data",
          "type": "bytes"
        }
      ],
      "name": "safeTransferFrom",
      "outputs": [],
      "stateMutability": "nonpayable",
      "type": "function"
    },
    {
      "inputs": [
        {
          "internalType": "address",
          "name": "operator",
          "type": "address"
        },
        {
          "internalType": "bool",
          "name": "approved",
          "type": "bool"
        }
      ],
      "name": "setApprovalForAll",
      "outputs": [],
      "stateMutability": "nonpayable",
      "type": "function"
    },
    {
      "inputs": [
        {
          "internalType": "uint256",
          "name": "tokenId",
          "type": "uint256"
        },
        {
          "internalType": "string",
          "name": "tokenURI",
          "type": "string"
        }
      ],
      "name": "setURI",
      "outputs": [],
      "stateMutability": "nonpayable",
      "type": "function"
    },
    {
      "inputs": [
        {
          "internalType": "bytes4",
          "name": "interfaceId",
          "type": "bytes4"
        }
      ],
      "name": "supportsInterface",
      "outputs": [
        {
          "internalType": "bool",
          "name": "",
          "type": "bool"
        }
      ],
      "stateMutability": "view",
      "type": "function"
    },
    {
      "inputs": [
        {
          "internalType": "address",
          "name": "newOwner",
          "type": "address"
        }
      ],
      "name": "transferOwnership",
      "outputs": [],
      "stateMutability": "nonpayable",
      "type": "function"
    },
    {
      "inputs": [
        {
          "internalType": "uint256",
          "name": "tokenId",
          "type": "uint256"
        }
      ],
      "name": "uri",
      "outputs": [
        {
          "internalType": "string",
          "name": "",
          "type": "string"
        }
      ],
      "stateMutability": "view",
      "type": "function"
    }
  ],
  "bytecode": "0x60a06040819052600060808190526200001b91600391620000e4565b503480156200002957600080fd5b5060405162001e1e38038062001e1e8339810160408190526200004c91620001a0565b604080516020810190915260008152620000668162000079565b50620000723362000092565b50620002b8565b80516200008e906002906020840190620000e4565b5050565b600580546001600160a01b038381166001600160a01b0319831681179093556040519116919082907f8be0079c531659141344cd1fd0a4f28419497f9722a3daafe3b4186f6b6457e090600090a35050565b828054620000f2906200027c565b90600052602060002090601f01602090048101928262000116576000855562000161565b82601f106200013157805160ff191683800117855562000161565b8280016001018555821562000161579182015b828111156200016157825182559160200191906001019062000144565b506200016f92915062000173565b5090565b5b808211156200016f576000815560010162000174565b634e487b7160e01b600052604160045260246000fd5b60006020808385031215620001b457600080fd5b82516001600160401b0380821115620001cc57600080fd5b818501915085601f830112620001e157600080fd5b815181811115620001f657620001f66200018a565b604051601f8201601f19908116603f011681019083821181831017156200022157620002216200018a565b8160405282815288868487010111156200023a57600080fd5b600093505b828410156200025e57848401860151818501870152928501926200023f565b82841115620002705760008684830101525b98975050505050505050565b600181811c908216806200029157607f821691505b602082108103620002b257634e487b7160e01b600052602260045260246000fd5b50919050565b611b5680620002c86000396000f3fe608060405234801561001057600080fd5b50600436106100f45760003560e01c8063862440e211610097578063ac8a584a11610066578063ac8a584a14610206578063e985e9c514610219578063f242432a14610255578063f2fde38b1461026857600080fd5b8063862440e2146101b25780638da5cb5b146101c55780639870d7fe146101e0578063a22cb465146101f357600080fd5b8063156e29f6116100d3578063156e29f6146101625780632eb2c2d6146101775780634e1273f41461018a578063715018a6146101aa57600080fd5b8062fdd58e146100f957806301ffc9a71461011f5780630e89341c14610142575b600080fd5b61010c6101073660046111a7565b61027b565b6040519081526020015b60405180910390f35b61013261012d3660046111e7565b610311565b6040519015158152602001610116565b610155610150366004611204565b610363565b6040516101169190611279565b61017561017036600461128c565b610443565b005b610175610185366004611415565b61047f565b61019d6101983660046114bf565b6104cb565b60405161011691906115c5565b6101756105f5565b6101756101c03660046115d8565b610609565b6005546040516001600160a01b039091168152602001610116565b6101756101ee366004611629565b610633565b610175610201366004611644565b61065f565b610175610214366004611629565b61066a565b610132610227366004611680565b6001600160a01b03918216600090815260016020908152604080832093909416825291909152205460ff1690565b6101756102633660046116b3565b610693565b610175610276366004611629565b6106d8565b60006001600160a01b0383166102eb5760405162461bcd60e51b815260206004820152602a60248201527f455243313135353a2061646472657373207a65726f206973206e6f742061207660448201526930b634b21037bbb732b960b11b60648201526084015b60405180910390fd5b506000908152602081815260408083206001600160a01b03949094168352929052205490565b60006001600160e01b03198216636cdb3d1360e11b148061034257506001600160e01b031982166303a24d0760e21b145b8061035d57506301ffc9a760e01b6001600160e01b03198316145b92915050565b60008181526004602052604081208054606092919061038190611718565b80601f01602080910402602001604051908101604052809291908181526020018280546103ad90611718565b80156103fa5780601f106103cf576101008083540402835291602001916103fa565b820191906000526020600020905b8154815290600101906020018083116103dd57829003601f168201915b5050505050905060008151116104185761041383610751565b61043c565b60038160405160200161042c92919061176e565b6040516020818303038152906040525b9392505050565b3360009081526006602052604090205460ff1661045f57600080fd5b61047a838383604051806020016040528060008152506107e5565b505050565b6001600160a01b03851633148061049b575061049b8533610227565b6104b75760405162461bcd60e51b81526004016102e290611814565b6104c48585858585610908565b5050505050565b606081518351146105305760405162461bcd60e51b815260206004820152602960248201527f455243313135353a206163636f756e747320616e6420696473206c656e677468604482015268040dad2e6dac2e8c6d60bb1b60648201526084016102e2565b6000835167ffffffffffffffff81111561054c5761054c6112bf565b604051908082528060200260200182016040528015610575578160200160208202803683370190505b50905060005b84518110156105ed576105c085828151811061059957610599611863565b60200260200101518583815181106105b3576105b3611863565b602002602001015161027b565b8282815181106105d2576105d2611863565b60209081029190910101526105e68161188f565b905061057b565b509392505050565b6105fd610af3565b6106076000610b4d565b565b3360009081526006602052604090205460ff1661062557600080fd5b61062f8282610bac565b5050565b61063b610af3565b6001600160a01b03166000908152600660205260409020805460ff19166001179055565b61062f338383610c10565b610672610af3565b6001600160a01b03166000908152600660205260409020805460ff19169055565b6001600160a01b0385163314806106af57506106af8533610227565b6106cb5760405162461bcd60e51b81526004016102e290611814565b6104c48585858585610cf0565b6106e0610af3565b6001600160a01b0381166107455760405162461bcd60e51b815260206004820152602660248201527f4f776e61626c653a206e6577206f776e657220697320746865207a65726f206160448201526564647265737360d01b60648201526084016102e2565b61074e81610b4d565b50565b60606002805461076090611718565b80601f016020809104026020016040519081016040528092919081815260200182805461078c90611718565b80156107d95780601f106107ae576101008083540402835291602001916107d9565b820191906000526020600020905b8154815290600101906020018083116107bc57829003601f168201915b50505050509050919050565b6001600160a01b0384166108455760405162461bcd60e51b815260206004820152602160248201527f455243313135353a206d696e7420746f20746865207a65726f206164647265736044820152607360f81b60648201526084016102e2565b33600061085185610e28565b9050600061085e85610e28565b905061086f83600089858589610e73565b6000868152602081815260408083206001600160a01b038b1684529091528120805487929061089f9084906118a8565b909155505060408051878152602081018790526001600160a01b03808a1692600092918716917fc3d58168c5ae7397731d063d5bbf3d657854427343f4c083240f7aacaa2d0f62910160405180910390a46108ff83600089898989610ed3565b50505050505050565b815183511461096a5760405162461bcd60e51b815260206004820152602860248201527f455243313135353a2069647320616e6420616d6f756e7473206c656e677468206044820152670dad2e6dac2e8c6d60c31b60648201526084016102e2565b6001600160a01b0384166109905760405162461bcd60e51b81526004016102e2906118c0565b3361099f818787878787610e73565b60005b8451811015610a855760008582815181106109bf576109bf611863565b6020026020010151905060008583815181106109dd576109dd611863565b602090810291909101810151600084815280835260408082206001600160a01b038e168352909352919091205490915081811015610a2d5760405162461bcd60e51b81526004016102e290611905565b6000838152602081815260408083206001600160a01b038e8116855292528083208585039055908b16825281208054849290610a6a9084906118a8565b9250508190555050505080610a7e9061188f565b90506109a2565b50846001600160a01b0316866001600160a01b0316826001600160a01b03167f4a39dc06d4c0dbc64b70af90fd698a233a518aa5d07e595d983b8c0526c8f7fb8787604051610ad592919061194f565b60405180910390a4610aeb818787878787611037565b505050505050565b6005546001600160a01b031633146106075760405162461bcd60e51b815260206004820181905260248201527f4f776e61626c653a2063616c6c6572206973206e6f7420746865206f776e657260448201526064016102e2565b600580546001600160a01b0383811673ffffffffffffffffffffffffffffffffffffffff19831681179093556040519116919082907f8be0079c531659141344cd1fd0a4f28419497f9722a3daafe3b4186f6b6457e090600090a35050565b60008281526004602090815260409091208251610bcb928401906110f2565b50817f6bb7ff708619ba0610cba295a58592e0451dee2622938c8755667688daf3529b610bf784610363565b604051610c049190611279565b60405180910390a25050565b816001600160a01b0316836001600160a01b031603610c835760405162461bcd60e51b815260206004820152602960248201527f455243313135353a2073657474696e6720617070726f76616c20737461747573604482015268103337b91039b2b63360b91b60648201526084016102e2565b6001600160a01b03838116600081815260016020908152604080832094871680845294825291829020805460ff191686151590811790915591519182527f17307eab39ab6107e8899845ad3d59bd9653f200f220920489ca2b5937696c31910160405180910390a3505050565b6001600160a01b038416610d165760405162461bcd60e51b81526004016102e2906118c0565b336000610d2285610e28565b90506000610d2f85610e28565b9050610d3f838989858589610e73565b6000868152602081815260408083206001600160a01b038c16845290915290205485811015610d805760405162461bcd60e51b81526004016102e290611905565b6000878152602081815260408083206001600160a01b038d8116855292528083208985039055908a16825281208054889290610dbd9084906118a8565b909155505060408051888152602081018890526001600160a01b03808b16928c821692918816917fc3d58168c5ae7397731d063d5bbf3d657854427343f4c083240f7aacaa2d0f62910160405180910390a4610e1d848a8a8a8a8a610ed3565b505050505050505050565b60408051600180825281830190925260609160009190602080830190803683370190505090508281600081518110610e6257610e62611863565b602090810291909101015292915050565b6001600160a01b03851615801590610ea457506001600160a01b03851660009081526006602052604090205460ff16155b8015610ec957506001600160a01b03841660009081526006602052604090205460ff16155b15610aeb57600080fd5b6001600160a01b0384163b15610aeb5760405163f23a6e6160e01b81526001600160a01b0385169063f23a6e6190610f179089908990889088908890600401611974565b6020604051808303816000875af1925050508015610f52575060408051601f3d908101601f19168201909252610f4f918101906119b7565b60015b61100757610f5e6119d4565b806308c379a003610f975750610f726119f0565b80610f7d5750610f99565b8060405162461bcd60e51b81526004016102e29190611279565b505b60405162461bcd60e51b815260206004820152603460248201527f455243313135353a207472616e7366657220746f206e6f6e204552433131353560448201527f526563656976657220696d706c656d656e74657200000000000000000000000060648201526084016102e2565b6001600160e01b0319811663f23a6e6160e01b146108ff5760405162461bcd60e51b81526004016102e290611a7a565b6001600160a01b0384163b15610aeb5760405163bc197c8160e01b81526001600160a01b0385169063bc197c819061107b9089908990889088908890600401611ac2565b6020604051808303816000875af19250505080156110b6575060408051601f3d908101601f191682019092526110b3918101906119b7565b60015b6110c257610f5e6119d4565b6001600160e01b0319811663bc197c8160e01b146108ff5760405162461bcd60e51b81526004016102e290611a7a565b8280546110fe90611718565b90600052602060002090601f0160209004810192826111205760008555611166565b82601f1061113957805160ff1916838001178555611166565b82800160010185558215611166579182015b8281111561116657825182559160200191906001019061114b565b50611172929150611176565b5090565b5b808211156111725760008155600101611177565b80356001600160a01b03811681146111a257600080fd5b919050565b600080604083850312156111ba57600080fd5b6111c38361118b565b946020939093013593505050565b6001600160e01b03198116811461074e57600080fd5b6000602082840312156111f957600080fd5b813561043c816111d1565b60006020828403121561121657600080fd5b5035919050565b60005b83811015611238578181015183820152602001611220565b83811115611247576000848401525b50505050565b6000815180845261126581602086016020860161121d565b601f01601f19169290920160200192915050565b60208152600061043c602083018461124d565b6000806000606084860312156112a157600080fd5b6112aa8461118b565b95602085013595506040909401359392505050565b634e487b7160e01b600052604160045260246000fd5b601f8201601f1916810167ffffffffffffffff811182821017156112fb576112fb6112bf565b6040525050565b600067ffffffffffffffff82111561131c5761131c6112bf565b5060051b60200190565b600082601f83011261133757600080fd5b8135602061134482611302565b60405161135182826112d5565b83815260059390931b850182019282810191508684111561137157600080fd5b8286015b8481101561138c5780358352918301918301611375565b509695505050505050565b600067ffffffffffffffff8311156113b1576113b16112bf565b6040516113c8601f8501601f1916602001826112d5565b8091508381528484840111156113dd57600080fd5b83836020830137600060208583010152509392505050565b600082601f83011261140657600080fd5b61043c83833560208501611397565b600080600080600060a0868803121561142d57600080fd5b6114368661118b565b94506114446020870161118b565b9350604086013567ffffffffffffffff8082111561146157600080fd5b61146d89838a01611326565b9450606088013591508082111561148357600080fd5b61148f89838a01611326565b935060808801359150808211156114a557600080fd5b506114b2888289016113f5565b9150509295509295909350565b600080604083850312156114d257600080fd5b823567ffffffffffffffff808211156114ea57600080fd5b818501915085601f8301126114fe57600080fd5b8135602061150b82611302565b60405161151882826112d5565b83815260059390931b850182019282810191508984111561153857600080fd5b948201945b8386101561155d5761154e8661118b565b8252948201949082019061153d565b9650508601359250508082111561157357600080fd5b5061158085828601611326565b9150509250929050565b600081518084526020808501945080840160005b838110156115ba5781518752958201959082019060010161159e565b509495945050505050565b60208152600061043c602083018461158a565b600080604083850312156115eb57600080fd5b82359150602083013567ffffffffffffffff81111561160957600080fd5b8301601f8101851361161a57600080fd5b61158085823560208401611397565b60006020828403121561163b57600080fd5b61043c8261118b565b6000806040838503121561165757600080fd5b6116608361118b565b91506020830135801515811461167557600080fd5b809150509250929050565b6000806040838503121561169357600080fd5b61169c8361118b565b91506116aa6020840161118b565b90509250929050565b600080600080600060a086880312156116cb57600080fd5b6116d48661118b565b94506116e26020870161118b565b93506040860135925060608601359150608086013567ffffffffffffffff81111561170c57600080fd5b6114b2888289016113f5565b600181811c9082168061172c57607f821691505b60208210810361174c57634e487b7160e01b600052602260045260246000fd5b50919050565b6000815161176481856020860161121d565b9290920192915050565b600080845481600182811c91508083168061178a57607f831692505b602080841082036117a957634e487b7160e01b86526022600452602486fd5b8180156117bd57600181146117ce576117fb565b60ff198616895284890196506117fb565b60008b81526020902060005b868110156117f35781548b8201529085019083016117da565b505084890196505b50505050505061180b8185611752565b95945050505050565b6020808252602f908201527f455243313135353a2063616c6c6572206973206e6f7420746f6b656e206f776e60408201526e195c881b9bdc88185c1c1c9bdd9959608a1b606082015260800190565b634e487b7160e01b600052603260045260246000fd5b634e487b7160e01b600052601160045260246000fd5b6000600182016118a1576118a1611879565b5060010190565b600082198211156118bb576118bb611879565b500190565b60208082526025908201527f455243313135353a207472616e7366657220746f20746865207a65726f206164604082015264647265737360d81b606082015260800190565b6020808252602a908201527f455243313135353a20696e73756666696369656e742062616c616e636520666f60408201526939103a3930b739b332b960b11b606082015260800190565b604081526000611962604083018561158a565b828103602084015261180b818561158a565b60006001600160a01b03808816835280871660208401525084604083015283606083015260a060808301526119ac60a083018461124d565b979650505050505050565b6000602082840312156119c957600080fd5b815161043c816111d1565b600060033d11156119ed5760046000803e5060005160e01c5b90565b600060443d10156119fe5790565b6040516003193d81016004833e81513d67ffffffffffffffff8160248401118184111715611a2e57505050505090565b8285019150815181811115611a465750505050505090565b843d8701016020828501011115611a605750505050505090565b611a6f602082860101876112d5565b509095945050505050565b60208082526028908201527f455243313135353a204552433131353552656365697665722072656a656374656040820152676420746f6b656e7360c01b606082015260800190565b60006001600160a01b03808816835280871660208401525060a06040830152611aee60a083018661158a565b8281036060840152611b00818661158a565b90508281036080840152611b14818561124d565b9897505050505050505056fea2646970667358221220b129dc4482cc8ff70f88a6432c6714bf354ae5cd6ddf788c85747dd3f55e934d64736f6c634300080d0033",
  "linkReferences": {},
  "deployedLinkReferences": {}
}