{
  "abi": [
    {
      "inputs": [],
      "stateMutability": "nonpayable",
      "type": "constructor"
    },
    {
      "inputs": [],
      "name": "MaidsPrediction_AlreadyClaimed",
      "type": "error"
    },
    {
      "inputs": [],
      "name": "MaidsPrediction_AlreadyPredicted",
      "type": "error"
    },
    {
      "inputs": [],
      "name": "MaidsPrediction_InsufficientAllowance",
      "type": "error"
    },
    {
      "inputs": [],
      "name": "MaidsPrediction_InsufficientAmount",
      "type": "error"
    },
    {
      "inputs": [],
      "name": "MaidsPrediction_InvalidChoice",
      "type": "error"
    },
    {
      "inputs": [],
      "name": "MaidsPrediction_InvalidPredictionId",
      "type": "error"
    },
    {
      "inputs": [],
      "name": "MaidsPrediction_InvalidPredictionURI",
      "type": "error"
    },
    {
      "inputs": [],
      "name": "MaidsPrediction_InvalidRate",
      "type": "error"
    },
    {
      "inputs": [],
      "name": "MaidsPrediction_NotHit",
      "type": "error"
    },
    {
      "inputs": [],
      "name": "MaidsPrediction_NotSettled",
      "type": "error"
    },
    {
      "inputs": [],
      "name": "MaidsPrediction_TimeUp",
      "type": "error"
    },
    {
      "inputs": [],
      "name": "MaidsPrediction_ZeroChoices",
      "type": "error"
    },
    {
      "anonymous": false,
      "inputs": [
        {
          "indexed": false,
          "internalType": "address",
          "name": "previousAdmin",
          "type": "address"
        },
        {
          "indexed": false,
          "internalType": "address",
          "name": "newAdmin",
          "type": "address"
        }
      ],
      "name": "AdminChanged",
      "type": "event"
    },
    {
      "anonymous": false,
      "inputs": [
        {
          "indexed": true,
          "internalType": "address",
          "name": "beacon",
          "type": "address"
        }
      ],
      "name": "BeaconUpgraded",
      "type": "event"
    },
    {
      "anonymous": false,
      "inputs": [
        {
          "indexed": false,
          "internalType": "uint8",
          "name": "version",
          "type": "uint8"
        }
      ],
      "name": "Initialized",
      "type": "event"
    },
    {
      "anonymous": false,
      "inputs": [
        {
          "indexed": true,
          "internalType": "address",
          "name": "previousOwner",
          "type": "address"
        },
        {
          "indexed": true,
          "internalType": "address",
          "name": "newOwner",
          "type": "address"
        }
      ],
      "name": "OwnershipTransferred",
      "type": "event"
    },
    {
      "anonymous": false,
      "inputs": [
        {
          "indexed": true,
          "internalType": "uint256",
          "name": "id_",
          "type": "uint256"
        },
        {
          "indexed": false,
          "internalType": "uint256",
          "name": "choicesLength_",
          "type": "uint256"
        },
        {
          "indexed": false,
          "internalType": "string",
          "name": "predictionURI_",
          "type": "string"
        },
        {
          "indexed": false,
          "internalType": "uint256",
          "name": "rate_",
          "type": "uint256"
        },
        {
          "indexed": false,
          "internalType": "uint256",
          "name": "endTime_",
          "type": "uint256"
        }
      ],
      "name": "PredictionCreated",
      "type": "event"
    },
    {
      "anonymous": false,
      "inputs": [
        {
          "indexed": true,
          "internalType": "uint256",
          "name": "id_",
          "type": "uint256"
        },
        {
          "indexed": false,
          "internalType": "uint256",
          "name": "result_",
          "type": "uint256"
        }
      ],
      "name": "Settle",
      "type": "event"
    },
    {
      "anonymous": false,
      "inputs": [
        {
          "indexed": true,
          "internalType": "address",
          "name": "implementation",
          "type": "address"
        }
      ],
      "name": "Upgraded",
      "type": "event"
    },
    {
      "inputs": [
        {
          "internalType": "uint256",
          "name": "id",
          "type": "uint256"
        }
      ],
      "name": "claimReward",
      "outputs": [],
      "stateMutability": "nonpayable",
      "type": "function"
    },
    {
      "inputs": [
        {
          "internalType": "uint256",
          "name": "choicesLength",
          "type": "uint256"
        },
        {
          "internalType": "string",
          "name": "predictionURI",
          "type": "string"
        },
        {
          "internalType": "uint256",
          "name": "rate",
          "type": "uint256"
        },
        {
          "internalType": "uint256",
          "name": "endTime",
          "type": "uint256"
        }
      ],
      "name": "createPrediction",
      "outputs": [],
      "stateMutability": "nonpayable",
      "type": "function"
    },
    {
      "inputs": [],
      "name": "getAllPredictions",
      "outputs": [
        {
          "components": [
            {
              "internalType": "uint256",
              "name": "id",
              "type": "uint256"
            },
            {
              "internalType": "uint256",
              "name": "choicesLength",
              "type": "uint256"
            },
            {
              "internalType": "string",
              "name": "predictionURI",
              "type": "string"
            },
            {
              "internalType": "uint256",
              "name": "rate",
              "type": "uint256"
            },
            {
              "internalType": "uint256",
              "name": "endTime",
              "type": "uint256"
            },
            {
              "internalType": "uint256",
              "name": "result",
              "type": "uint256"
            },
            {
              "internalType": "bool",
              "name": "isSettled",
              "type": "bool"
            }
          ],
          "internalType": "struct MaidsPrediction.Prediction[]",
          "name": "",
          "type": "tuple[]"
        }
      ],
      "stateMutability": "view",
      "type": "function"
    },
    {
      "inputs": [],
      "name": "getImplementation",
      "outputs": [
        {
          "internalType": "address",
          "name": "",
          "type": "address"
        }
      ],
      "stateMutability": "view",
      "type": "function"
    },
    {
      "inputs": [
        {
          "internalType": "uint256",
          "name": "id",
          "type": "uint256"
        }
      ],
      "name": "getPrediction",
      "outputs": [
        {
          "components": [
            {
              "internalType": "uint256",
              "name": "id",
              "type": "uint256"
            },
            {
              "internalType": "uint256",
              "name": "choicesLength",
              "type": "uint256"
            },
            {
              "internalType": "string",
              "name": "predictionURI",
              "type": "string"
            },
            {
              "internalType": "uint256",
              "name": "rate",
              "type": "uint256"
            },
            {
              "internalType": "uint256",
              "name": "endTime",
              "type": "uint256"
            },
            {
              "internalType": "uint256",
              "name": "result",
              "type": "uint256"
            },
            {
              "internalType": "bool",
              "name": "isSettled",
              "type": "bool"
            }
          ],
          "internalType": "struct MaidsPrediction.Prediction",
          "name": "",
          "type": "tuple"
        }
      ],
      "stateMutability": "view",
      "type": "function"
    },
    {
      "inputs": [
        {
          "internalType": "address",
          "name": "user",
          "type": "address"
        },
        {
          "internalType": "uint256",
          "name": "id",
          "type": "uint256"
        }
      ],
      "name": "getRewardAmount",
      "outputs": [
        {
          "internalType": "uint256",
          "name": "",
          "type": "uint256"
        }
      ],
      "stateMutability": "view",
      "type": "function"
    },
    {
      "inputs": [],
      "name": "getTop3Info",
      "outputs": [
        {
          "components": [
            {
              "internalType": "address",
              "name": "user",
              "type": "address"
            },
            {
              "internalType": "uint256",
              "name": "amount",
              "type": "uint256"
            }
          ],
          "internalType": "struct MaidsPrediction.TopUserInfo[3]",
          "name": "",
          "type": "tuple[3]"
        }
      ],
      "stateMutability": "view",
      "type": "function"
    },
    {
      "inputs": [
        {
          "internalType": "address",
          "name": "user",
          "type": "address"
        },
        {
          "internalType": "uint256",
          "name": "id",
          "type": "uint256"
        }
      ],
      "name": "getUserInfo",
      "outputs": [
        {
          "components": [
            {
              "internalType": "uint256",
              "name": "amount",
              "type": "uint256"
            },
            {
              "internalType": "uint256",
              "name": "choice",
              "type": "uint256"
            },
            {
              "internalType": "bool",
              "name": "isPredicted",
              "type": "bool"
            },
            {
              "internalType": "bool",
              "name": "isClaimed",
              "type": "bool"
            }
          ],
          "internalType": "struct MaidsPrediction.UserInfo",
          "name": "",
          "type": "tuple"
        }
      ],
      "stateMutability": "view",
      "type": "function"
    },
    {
      "inputs": [
        {
          "internalType": "uint256",
          "name": "id",
          "type": "uint256"
        }
      ],
      "name": "getUserInfoOfPrediction",
      "outputs": [
        {
          "components": [
            {
              "internalType": "uint256",
              "name": "amount",
              "type": "uint256"
            },
            {
              "internalType": "uint256",
              "name": "choice",
              "type": "uint256"
            },
            {
              "internalType": "bool",
              "name": "isPredicted",
              "type": "bool"
            },
            {
              "internalType": "bool",
              "name": "isClaimed",
              "type": "bool"
            }
          ],
          "internalType": "struct MaidsPrediction.UserInfo[]",
          "name": "",
          "type": "tuple[]"
        }
      ],
      "stateMutability": "view",
      "type": "function"
    },
    {
      "inputs": [
        {
          "internalType": "address",
          "name": "token_",
          "type": "address"
        }
      ],
      "name": "initialize",
      "outputs": [],
      "stateMutability": "nonpayable",
      "type": "function"
    },
    {
      "inputs": [],
      "name": "owner",
      "outputs": [
        {
          "internalType": "address",
          "name": "",
          "type": "address"
        }
      ],
      "stateMutability": "view",
      "type": "function"
    },
    {
      "inputs": [
        {
          "internalType": "uint256",
          "name": "id",
          "type": "uint256"
        },
        {
          "internalType": "uint256",
          "name": "amount",
          "type": "uint256"
        },
        {
          "internalType": "uint256",
          "name": "choice",
          "type": "uint256"
        }
      ],
      "name": "predict",
      "outputs": [],
      "stateMutability": "nonpayable",
      "type": "function"
    },
    {
      "inputs": [
        {
          "internalType": "uint256",
          "name": "",
          "type": "uint256"
        }
      ],
      "name": "predictions",
      "outputs": [
        {
          "internalType": "uint256",
          "name": "id",
          "type": "uint256"
        },
        {
          "internalType": "uint256",
          "name": "choicesLength",
          "type": "uint256"
        },
        {
          "internalType": "string",
          "name": "predictionURI",
          "type": "string"
        },
        {
          "internalType": "uint256",
          "name": "rate",
          "type": "uint256"
        },
        {
          "internalType": "uint256",
          "name": "endTime",
          "type": "uint256"
        },
        {
          "internalType": "uint256",
          "name": "result",
          "type": "uint256"
        },
        {
          "internalType": "bool",
          "name": "isSettled",
          "type": "bool"
        }
      ],
      "stateMutability": "view",
      "type": "function"
    },
    {
      "inputs": [],
      "name": "proxiableUUID",
      "outputs": [
        {
          "internalType": "bytes32",
          "name": "",
          "type": "bytes32"
        }
      ],
      "stateMutability": "view",
      "type": "function"
    },
    {
      "inputs": [],
      "name": "renounceOwnership",
      "outputs": [],
      "stateMutability": "nonpayable",
      "type": "function"
    },
    {
      "inputs": [
        {
          "internalType": "uint256",
          "name": "id",
          "type": "uint256"
        },
        {
          "internalType": "uint256",
          "name": "choicesLength",
          "type": "uint256"
        }
      ],
      "name": "setChoicesLength",
      "outputs": [],
      "stateMutability": "nonpayable",
      "type": "function"
    },
    {
      "inputs": [
        {
          "internalType": "uint256",
          "name": "id",
          "type": "uint256"
        },
        {
          "internalType": "uint256",
          "name": "endTime",
          "type": "uint256"
        }
      ],
      "name": "setEndTime",
      "outputs": [],
      "stateMutability": "nonpayable",
      "type": "function"
    },
    {
      "inputs": [
        {
          "internalType": "uint256",
          "name": "id",
          "type": "uint256"
        },
        {
          "internalType": "string",
          "name": "predictionURI",
          "type": "string"
        }
      ],
      "name": "setPredictionURI",
      "outputs": [],
      "stateMutability": "nonpayable",
      "type": "function"
    },
    {
      "inputs": [
        {
          "internalType": "uint256",
          "name": "id",
          "type": "uint256"
        },
        {
          "internalType": "uint256",
          "name": "rate",
          "type": "uint256"
        }
      ],
      "name": "setRate",
      "outputs": [],
      "stateMutability": "nonpayable",
      "type": "function"
    },
    {
      "inputs": [
        {
          "internalType": "address",
          "name": "address_",
          "type": "address"
        }
      ],
      "name": "setToken",
      "outputs": [],
      "stateMutability": "nonpayable",
      "type": "function"
    },
    {
      "inputs": [
        {
          "internalType": "uint256",
          "name": "id",
          "type": "uint256"
        },
        {
          "internalType": "uint256",
          "name": "choice",
          "type": "uint256"
        }
      ],
      "name": "settle",
      "outputs": [],
      "stateMutability": "nonpayable",
      "type": "function"
    },
    {
      "inputs": [],
      "name": "token",
      "outputs": [
        {
          "internalType": "contract IMaidsToken",
          "name": "",
          "type": "address"
        }
      ],
      "stateMutability": "view",
      "type": "function"
    },
    {
      "inputs": [
        {
          "internalType": "uint256",
          "name": "",
          "type": "uint256"
        }
      ],
      "name": "top3Users",
      "outputs": [
        {
          "internalType": "address",
          "name": "user",
          "type": "address"
        },
        {
          "internalType": "uint256",
          "name": "amount",
          "type": "uint256"
        }
      ],
      "stateMutability": "view",
      "type": "function"
    },
    {
      "inputs": [
        {
          "internalType": "address",
          "name": "newOwner",
          "type": "address"
        }
      ],
      "name": "transferOwnership",
      "outputs": [],
      "stateMutability": "nonpayable",
      "type": "function"
    },
    {
      "inputs": [
        {
          "internalType": "address",
          "name": "newImplementation",
          "type": "address"
        }
      ],
      "name": "upgradeTo",
      "outputs": [],
      "stateMutability": "nonpayable",
      "type": "function"
    },
    {
      "inputs": [
        {
          "internalType": "address",
          "name": "newImplementation",
          "type": "address"
        },
        {
          "internalType": "bytes",
          "name": "data",
          "type": "bytes"
        }
      ],
      "name": "upgradeToAndCall",
      "outputs": [],
      "stateMutability": "payable",
      "type": "function"
    },
    {
      "inputs": [
        {
          "internalType": "address",
          "name": "",
          "type": "address"
        },
        {
          "internalType": "uint256",
          "name": "id",
          "type": "uint256"
        }
      ],
      "name": "userInfo",
      "outputs": [
        {
          "internalType": "uint256",
          "name": "amount",
          "type": "uint256"
        },
        {
          "internalType": "uint256",
          "name": "choice",
          "type": "uint256"
        },
        {
          "internalType": "bool",
          "name": "isPredicted",
          "type": "bool"
        },
        {
          "internalType": "bool",
          "name": "isClaimed",
          "type": "bool"
        }
      ],
      "stateMutability": "view",
      "type": "function"
    },
    {
      "inputs": [
        {
          "internalType": "uint256",
          "name": "",
          "type": "uint256"
        },
        {
          "internalType": "uint256",
          "name": "",
          "type": "uint256"
        }
      ],
      "name": "userInfos",
      "outputs": [
        {
          "internalType": "uint256",
          "name": "amount",
          "type": "uint256"
        },
        {
          "internalType": "uint256",
          "name": "choice",
          "type": "uint256"
        },
        {
          "internalType": "bool",
          "name": "isPredicted",
          "type": "bool"
        },
        {
          "internalType": "bool",
          "name": "isClaimed",
          "type": "bool"
        }
      ],
      "stateMutability": "view",
      "type": "function"
    }
  ],
  "bytecode": {
    "object": "0x60a0604052306080523480156200001557600080fd5b506200002062000026565b620000e8565b600054610100900460ff1615620000935760405162461bcd60e51b815260206004820152602760248201527f496e697469616c697a61626c653a20636f6e747261637420697320696e697469604482015266616c697a696e6760c81b606482015260840160405180910390fd5b60005460ff9081161015620000e6576000805460ff191660ff9081179091556040519081527f7f26b83ff96e1f2b6a682f133852f6798a09c465da95921460cefb38474024989060200160405180910390a15b565b60805161291d6200012060003960008181610a3501528181610a7e01528181610b8901528181610bc90152610c45015261291d6000f3fe6080604052600436106101b65760003560e01c806376e8424f116100ec578063bc1c72851161008a578063da4e855611610064578063da4e855614610563578063f2fde38b14610583578063fc0c546a146105a3578063fe83bece146105c357600080fd5b8063bc1c728514610501578063c4d66de814610523578063d278d5f41461054357600080fd5b80639a9c29f6116100c65780639a9c29f61461048c578063aaf10f42146104ac578063abfbac4b146104c1578063ae169a50146104e157600080fd5b806376e8424f146104005780638da5cb5b1461042d57806393ca5fd41461045f57600080fd5b806346df2ccb11610159578063538a5da711610133578063538a5da7146103895780635fb2f6bb146103ab578063715018a6146103cb57806373a406e2146103e057600080fd5b806346df2ccb146103335780634f1ef2861461035357806352d1902d1461036657600080fd5b80631651b058116101955780631651b0581461023957806321ce919d146102595780633659cfe6146102d457806342e6fe58146102f457600080fd5b80624fbbb0146101bb5780630e6b7cf1146101f7578063144fa6d714610219575b600080fd5b3480156101c757600080fd5b506101db6101d6366004612067565b6105f0565b6040516101ee97969594939291906120d0565b60405180910390f35b34801561020357600080fd5b50610217610212366004612117565b6106ce565b005b34801561022557600080fd5b50610217610234366004612155565b610725565b34801561024557600080fd5b50610217610254366004612170565b61074f565b34801561026557600080fd5b506102ac61027436600461219c565b60cb60209081526000928352604080842090915290825290208054600182015460029092015490919060ff8082169161010090041684565b60408051948552602085019390935290151591830191909152151560608201526080016101ee565b3480156102e057600080fd5b506102176102ef366004612155565b610a2b565b34801561030057600080fd5b5061031461030f366004612067565b610afc565b604080516001600160a01b0390931683526020830191909152016101ee565b34801561033f57600080fd5b5061021761034e366004612117565b610b28565b610217610361366004612252565b610b7f565b34801561037257600080fd5b5061037b610c38565b6040519081526020016101ee565b34801561039557600080fd5b5061039e610ceb565b6040516101ee91906122b4565b3480156103b757600080fd5b506102176103c636600461231a565b610d50565b3480156103d757600080fd5b50610217610db0565b3480156103ec57600080fd5b506102ac6103fb366004612117565b610dc4565b34801561040c57600080fd5b5061042061041b36600461219c565b610e12565b6040516101ee9190612357565b34801561043957600080fd5b506033546001600160a01b03165b6040516001600160a01b0390911681526020016101ee565b34801561046b57600080fd5b5061047f61047a366004612067565b610ece565b6040516101ee9190612386565b34801561049857600080fd5b506102176104a7366004612117565b610fc1565b3480156104b857600080fd5b506104476110a9565b3480156104cd57600080fd5b506102176104dc366004612117565b6110b8565b3480156104ed57600080fd5b506102176104fc366004612067565b61110f565b34801561050d57600080fd5b50610516611284565b6040516101ee9190612458565b34801561052f57600080fd5b5061021761053e366004612155565b6113b3565b34801561054f57600080fd5b5061021761055e3660046124ba565b6114e7565b34801561056f57600080fd5b5061037b61057e36600461219c565b6116bb565b34801561058f57600080fd5b5061021761059e366004612155565b611719565b3480156105af57600080fd5b5060c954610447906001600160a01b031681565b3480156105cf57600080fd5b506105e36105de366004612067565b61178f565b6040516101ee9190612511565b60ca818154811061060057600080fd5b906000526020600020906007020160009150905080600001549080600101549080600201805461062f90612524565b80601f016020809104026020016040519081016040528092919081815260200182805461065b90612524565b80156106a85780601f1061067d576101008083540402835291602001916106a8565b820191906000526020600020905b81548152906001019060200180831161068b57829003601f168201915b505050506003830154600484015460058501546006909501549394919390925060ff1687565b6106d6611931565b60ca5482106106f85760405163068f3e9360e01b815260040160405180910390fd5b8060ca838154811061070c5761070c61255e565b9060005260206000209060070201600101819055505050565b61072d611931565b60c980546001600160a01b0319166001600160a01b0392909216919091179055565b60ca5483106107715760405163068f3e9360e01b815260040160405180910390fd5b68056bc75e2d6310000082101561079b5760405163081c661b60e11b815260040160405180910390fd5b60ca83815481106107ae576107ae61255e565b90600052602060002090600702016001015481106107df57604051635aad106160e11b815260040160405180910390fd5b60ca83815481106107f2576107f261255e565b906000526020600020906007020160040154421115610824576040516311df950760e31b815260040160405180910390fd5b33600090815260cb6020908152604080832086845290915290206002015460ff16156108635760405163925df25760e01b815260040160405180910390fd5b60c954604051636eb1769f60e11b81523360048201523060248201526000916001600160a01b03169063dd62ed3e90604401602060405180830381865afa1580156108b2573d6000803e3d6000fd5b505050506040513d601f19601f820116820180604052508101906108d69190612574565b9050828110156108f957604051635719143960e11b815260040160405180910390fd5b60c9546040516323b872dd60e01b8152336004820152306024820152604481018590526001600160a01b03909116906323b872dd906064016020604051808303816000875af1158015610950573d6000803e3d6000fd5b505050506040513d601f19601f82011682018060405250810190610974919061258d565b5050604080516080810182529283526020808401928352600184830181815260006060870181815233825260cb8552858220988252978452848120875181558651818501558251600291820180548b51151561010090810261ff0019941515851661ffff19938416171790925560cc88529784208054808801825590855296909320985160039096029098019485559551928401929092555191909301805495511515909302901515909316931692909217179055565b6001600160a01b037f0000000000000000000000000000000000000000000000000000000000000000163003610a7c5760405162461bcd60e51b8152600401610a73906125af565b60405180910390fd5b7f00000000000000000000000000000000000000000000000000000000000000006001600160a01b0316610aae61198b565b6001600160a01b031614610ad45760405162461bcd60e51b8152600401610a73906125fb565b610add816119a7565b60408051600080825260208201909252610af9918391906119af565b50565b60cd8160038110610b0c57600080fd5b6002020180546001909101546001600160a01b03909116915082565b610b30611931565b60ca548210610b525760405163068f3e9360e01b815260040160405180910390fd5b8060ca8381548110610b6657610b6661255e565b9060005260206000209060070201600301819055505050565b6001600160a01b037f0000000000000000000000000000000000000000000000000000000000000000163003610bc75760405162461bcd60e51b8152600401610a73906125af565b7f00000000000000000000000000000000000000000000000000000000000000006001600160a01b0316610bf961198b565b6001600160a01b031614610c1f5760405162461bcd60e51b8152600401610a73906125fb565b610c28826119a7565b610c34828260016119af565b5050565b6000306001600160a01b037f00000000000000000000000000000000000000000000000000000000000000001614610cd85760405162461bcd60e51b815260206004820152603860248201527f555550535570677261646561626c653a206d757374206e6f742062652063616c60448201527f6c6564207468726f7567682064656c656761746563616c6c00000000000000006064820152608401610a73565b506000805160206128a183398151915290565b610cf361202e565b604080516060810190915260cd60036000835b82821015610d47576040805180820190915260028302850180546001600160a01b031682526001908101546020808401919091529183529092019101610d06565b50505050905090565b610d58611931565b60ca548210610d7a5760405163068f3e9360e01b815260040160405180910390fd5b8060ca8381548110610d8e57610d8e61255e565b90600052602060002090600702016002019081610dab9190612695565b505050565b610db8611931565b610dc26000611b1a565b565b60cc6020528160005260406000208181548110610de057600080fd5b600091825260209091206003909102018054600182015460029092015490935090915060ff8082169161010090041684565b60408051608081018252600080825260208201819052918101829052606081019190915260ca548210610e695750604080516080810182526000808252602082018190529181018290526060810191909152610ec8565b506001600160a01b038216600090815260cb602090815260408083208484528252918290208251608081018452815481526001820154928101929092526002015460ff8082161515938301939093526101009004909116151560608201525b92915050565b60ca546060908210610f2b576040805160008082526020820190925290610f24565b604080516080810182526000808252602080830182905292820181905260608201528252600019909201910181610ef05790505b5092915050565b600082815260cc6020908152604080832080548251818502810185019093528083529193909284015b82821015610fb65760008481526020908190206040805160808101825260038602909201805483526001808201548486015260029091015460ff8082161515938501939093526101009004909116151560608301529083529092019101610f54565b505050509050919050565b610fc9611931565b60ca548210610feb5760405163068f3e9360e01b815260040160405180910390fd5b60ca8281548110610ffe57610ffe61255e565b906000526020600020906007020160010154811061102f57604051635aad106160e11b815260040160405180910390fd5b600060ca83815481106110445761104461255e565b600091825260209182902060079091020160058101849055600681018054600160ff199091161790558054604051858152919350917f88a84ea6dd274b386afd27dbbe11b6192b25017f5e60bb8c4053dfddb45c294d910160405180910390a2505050565b60006110b361198b565b905090565b6110c0611931565b60ca5482106110e25760405163068f3e9360e01b815260040160405180910390fd5b8060ca83815481106110f6576110f661255e565b9060005260206000209060070201600401819055505050565b60ca5481106111315760405163068f3e9360e01b815260040160405180910390fd5b60ca81815481106111445761114461255e565b600091825260209091206006600790920201015460ff1661117857604051637c9b648360e11b815260040160405180910390fd5b33600090815260cb60209081526040808320848452909152902060020154610100900460ff16156111bc576040516363988ae560e01b815260040160405180910390fd5b60006111c83383611b6c565b9050600081116111eb57604051633890399760e11b815260040160405180910390fd5b60c9546040516340c10f1960e01b8152336004820152602481018390526001600160a01b03909116906340c10f1990604401600060405180830381600087803b15801561123757600080fd5b505af115801561124b573d6000803e3d6000fd5b505033600081815260cb602090815260408083208884529091529020600201805461ff001916610100179055610c349250905082611c34565b606060ca805480602002602001604051908101604052809291908181526020016000905b82821015610d4757838290600052602060002090600702016040518060e001604052908160008201548152602001600182015481526020016002820180546112ef90612524565b80601f016020809104026020016040519081016040528092919081815260200182805461131b90612524565b80156113685780601f1061133d57610100808354040283529160200191611368565b820191906000526020600020905b81548152906001019060200180831161134b57829003601f168201915b50505091835250506003820154602080830191909152600483015460408301526005830154606083015260069092015460ff16151560809091015290825260019290920191016112a8565b600054610100900460ff16158080156113d35750600054600160ff909116105b806113ed5750303b1580156113ed575060005460ff166001145b6114505760405162461bcd60e51b815260206004820152602e60248201527f496e697469616c697a61626c653a20636f6e747261637420697320616c72656160448201526d191e481a5b9a5d1a585b1a5e995960921b6064820152608401610a73565b6000805460ff191660011790558015611473576000805461ff0019166101001790555b61147b611d63565b611483611d92565b60c980546001600160a01b0319166001600160a01b0384161790558015610c34576000805461ff0019169055604051600181527f7f26b83ff96e1f2b6a682f133852f6798a09c465da95921460cefb38474024989060200160405180910390a15050565b6114ef611931565b60008411611510576040516397e42ff160e01b815260040160405180910390fd5b6000835111611532576040516321837f8d60e11b815260040160405180910390fd5b60008211611553576040516324124cbd60e21b815260040160405180910390fd5b6040805160e08101825260ca8054808352602083018881529383018781526060840187905260808401869052600060a0850181905260c0850181905260018301845592909252825160079091027f42d72674974f694b5f5159593243114d38a5c39c89d6b62fee061ff523240ee1810191825593517f42d72674974f694b5f5159593243114d38a5c39c89d6b62fee061ff523240ee28501559051919283927f42d72674974f694b5f5159593243114d38a5c39c89d6b62fee061ff523240ee3909101906116219082612695565b50606082015181600301556080820151816004015560a0820151816005015560c08201518160060160006101000a81548160ff021916908315150217905550505080600001517f2c9abf2661fb03c138ccec3cfd5f61aa163de60c174367b32f8e37c77026fac082602001518360400151846060015185608001516040516116ac9493929190612755565b60405180910390a25050505050565b60ca5460009082106116cf57506000610ec8565b60ca82815481106116e2576116e261255e565b600091825260209091206006600790920201015460ff1661170557506000610ec8565b60006117118484611b6c565b949350505050565b611721611931565b6001600160a01b0381166117865760405162461bcd60e51b815260206004820152602660248201527f4f776e61626c653a206e6577206f776e657220697320746865207a65726f206160448201526564647265737360d01b6064820152608401610a73565b610af981611b1a565b6117d16040518060e001604052806000815260200160008152602001606081526020016000815260200160008152602001600081526020016000151581525090565b60ca54821061182b576040518060e001604052806000815260200160008152602001604051806020016040528060008152508152602001600081526020016000815260200160008152602001600015158152509050919050565b60ca828154811061183e5761183e61255e565b90600052602060002090600702016040518060e0016040529081600082015481526020016001820154815260200160028201805461187b90612524565b80601f01602080910402602001604051908101604052809291908181526020018280546118a790612524565b80156118f45780601f106118c9576101008083540402835291602001916118f4565b820191906000526020600020905b8154815290600101906020018083116118d757829003601f168201915b505050918352505060038201546020820152600482015460408201526005820154606082015260069091015460ff16151560809091015292915050565b6033546001600160a01b03163314610dc25760405162461bcd60e51b815260206004820181905260248201527f4f776e61626c653a2063616c6c6572206973206e6f7420746865206f776e65726044820152606401610a73565b6000805160206128a1833981519152546001600160a01b031690565b610af9611931565b7f4910fdfa16fed3260ed0e7147f7cc6da11a60208b5b9406d12a635614ffd91435460ff16156119e257610dab83611db9565b826001600160a01b03166352d1902d6040518163ffffffff1660e01b8152600401602060405180830381865afa925050508015611a3c575060408051601f3d908101601f19168201909252611a3991810190612574565b60015b611a9f5760405162461bcd60e51b815260206004820152602e60248201527f45524331393637557067726164653a206e657720696d706c656d656e7461746960448201526d6f6e206973206e6f74205555505360901b6064820152608401610a73565b6000805160206128a18339815191528114611b0e5760405162461bcd60e51b815260206004820152602960248201527f45524331393637557067726164653a20756e737570706f727465642070726f786044820152681a58589b195555525160ba1b6064820152608401610a73565b50610dab838383611e55565b603380546001600160a01b038381166001600160a01b0319831681179093556040519116919082907f8be0079c531659141344cd1fd0a4f28419497f9722a3daafe3b4186f6b6457e090600090a35050565b60008060ca8381548110611b8257611b8261255e565b60009182526020808320600792909202909101600301546001600160a01b038716835260cb82526040808420878552909252912080546001909101549192509081611bd35760009350505050610ec8565b60ca8581548110611be657611be661255e565b9060005260206000209060070201600501548114611c0a5760009350505050610ec8565b6064611c168484612797565b611c2091906127ae565b611c2a90836127d0565b9695505050505050565b60005b6003811015610dab578160cd8260038110611c5457611c5461255e565b60020201600101541015611d515760025b81811115611ce55760cd611c7a6001836127e3565b60038110611c8a57611c8a61255e565b6002020160cd8260038110611ca157611ca161255e565b82546002919091029190910180546001600160a01b0319166001600160a01b0390921691909117815560019182015491015580611cdd816127f6565b915050611c65565b506040518060400160405280846001600160a01b031681526020018381525060cd8260038110611d1757611d1761255e565b82516002919091029190910180546001600160a01b0319166001600160a01b03909216919091178155602090910151600190910155505050565b80611d5b8161280d565b915050611c37565b600054610100900460ff16611d8a5760405162461bcd60e51b8152600401610a7390612826565b610dc2611e80565b600054610100900460ff16610dc25760405162461bcd60e51b8152600401610a7390612826565b6001600160a01b0381163b611e265760405162461bcd60e51b815260206004820152602d60248201527f455243313936373a206e657720696d706c656d656e746174696f6e206973206e60448201526c1bdd08184818dbdb9d1c9858dd609a1b6064820152608401610a73565b6000805160206128a183398151915280546001600160a01b0319166001600160a01b0392909216919091179055565b611e5e83611eb0565b600082511180611e6b5750805b15610dab57611e7a8383611ef0565b50505050565b600054610100900460ff16611ea75760405162461bcd60e51b8152600401610a7390612826565b610dc233611b1a565b611eb981611db9565b6040516001600160a01b038216907fbc7cd75a20ee27fd9adebab32041f755214dbc6bffa90cc0225b39da2e5c2d3b90600090a250565b60606001600160a01b0383163b611f585760405162461bcd60e51b815260206004820152602660248201527f416464726573733a2064656c65676174652063616c6c20746f206e6f6e2d636f6044820152651b9d1c9858dd60d21b6064820152608401610a73565b600080846001600160a01b031684604051611f739190612871565b600060405180830381855af49150503d8060008114611fae576040519150601f19603f3d011682016040523d82523d6000602084013e611fb3565b606091505b5091509150611fdb82826040518060600160405280602781526020016128c160279139611fe4565b95945050505050565b60608315611ff3575081611ffd565b611ffd8383612004565b9392505050565b8151156120145781518083602001fd5b8060405162461bcd60e51b8152600401610a73919061288d565b60405180606001604052806003905b604080518082019091526000808252602082015281526020019060019003908161203d5790505090565b60006020828403121561207957600080fd5b5035919050565b60005b8381101561209b578181015183820152602001612083565b50506000910152565b600081518084526120bc816020860160208601612080565b601f01601f19169290920160200192915050565b87815286602082015260e0604082015260006120ef60e08301886120a4565b90508560608301528460808301528360a083015282151560c083015298975050505050505050565b6000806040838503121561212a57600080fd5b50508035926020909101359150565b80356001600160a01b038116811461215057600080fd5b919050565b60006020828403121561216757600080fd5b611ffd82612139565b60008060006060848603121561218557600080fd5b505081359360208301359350604090920135919050565b600080604083850312156121af57600080fd5b6121b883612139565b946020939093013593505050565b634e487b7160e01b600052604160045260246000fd5b600067ffffffffffffffff808411156121f7576121f76121c6565b604051601f8501601f19908116603f0116810190828211818310171561221f5761221f6121c6565b8160405280935085815286868601111561223857600080fd5b858560208301376000602087830101525050509392505050565b6000806040838503121561226557600080fd5b61226e83612139565b9150602083013567ffffffffffffffff81111561228a57600080fd5b8301601f8101851361229b57600080fd5b6122aa858235602084016121dc565b9150509250929050565b60c08101818360005b60038110156122f157815180516001600160a01b0316845260209081015181850152604090930192909101906001016122bd565b50505092915050565b600082601f83011261230b57600080fd5b611ffd838335602085016121dc565b6000806040838503121561232d57600080fd5b82359150602083013567ffffffffffffffff81111561234b57600080fd5b6122aa858286016122fa565b815181526020808301519082015260408083015115159082015260608083015115159082015260808101610ec8565b6020808252825182820181905260009190848201906040850190845b818110156123ed576123da83855180518252602081015160208301526040810151151560408301526060810151151560608301525050565b92840192608092909201916001016123a2565b50909695505050505050565b80518252602081015160208301526000604082015160e0604085015261242260e08501826120a4565b9050606083015160608501526080830151608085015260a083015160a085015260c0830151151560c08501528091505092915050565b6000602080830181845280855180835260408601915060408160051b870101925083870160005b828110156124ad57603f1988860301845261249b8583516123f9565b9450928501929085019060010161247f565b5092979650505050505050565b600080600080608085870312156124d057600080fd5b84359350602085013567ffffffffffffffff8111156124ee57600080fd5b6124fa878288016122fa565b949794965050505060408301359260600135919050565b602081526000611ffd60208301846123f9565b600181811c9082168061253857607f821691505b60208210810361255857634e487b7160e01b600052602260045260246000fd5b50919050565b634e487b7160e01b600052603260045260246000fd5b60006020828403121561258657600080fd5b5051919050565b60006020828403121561259f57600080fd5b81518015158114611ffd57600080fd5b6020808252602c908201527f46756e6374696f6e206d7573742062652063616c6c6564207468726f7567682060408201526b19195b1959d85d1958d85b1b60a21b606082015260800190565b6020808252602c908201527f46756e6374696f6e206d7573742062652063616c6c6564207468726f7567682060408201526b6163746976652070726f787960a01b606082015260800190565b601f821115610dab57600081815260208120601f850160051c8101602086101561266e5750805b601f850160051c820191505b8181101561268d5782815560010161267a565b505050505050565b815167ffffffffffffffff8111156126af576126af6121c6565b6126c3816126bd8454612524565b84612647565b602080601f8311600181146126f857600084156126e05750858301515b600019600386901b1c1916600185901b17855561268d565b600085815260208120601f198616915b8281101561272757888601518255948401946001909101908401612708565b50858210156127455787850151600019600388901b60f8161c191681555b5050505050600190811b01905550565b84815260806020820152600061276e60808301866120a4565b6040830194909452506060015292915050565b634e487b7160e01b600052601160045260246000fd5b8082028115828204841417610ec857610ec8612781565b6000826127cb57634e487b7160e01b600052601260045260246000fd5b500490565b80820180821115610ec857610ec8612781565b81810381811115610ec857610ec8612781565b60008161280557612805612781565b506000190190565b60006001820161281f5761281f612781565b5060010190565b6020808252602b908201527f496e697469616c697a61626c653a20636f6e7472616374206973206e6f74206960408201526a6e697469616c697a696e6760a81b606082015260800190565b60008251612883818460208701612080565b9190910192915050565b602081526000611ffd60208301846120a456fe360894a13ba1a3210667c828492db98dca3e2076cc3735a920a3ca505d382bbc416464726573733a206c6f772d6c6576656c2064656c65676174652063616c6c206661696c6564a2646970667358221220c53c5698c3408698ff2205bda63904c8a8e70e036a5bf3bfd4eb3ae2f77b8c2364736f6c63430008150033",
    "linkReferences": {}
  },
  "methodIdentifiers": {
    "claimReward(uint256)": "ae169a50",
    "createPrediction(uint256,string,uint256,uint256)": "d278d5f4",
    "getAllPredictions()": "bc1c7285",
    "getImplementation()": "aaf10f42",
    "getPrediction(uint256)": "fe83bece",
    "getRewardAmount(address,uint256)": "da4e8556",
    "getTop3Info()": "538a5da7",
    "getUserInfo(address,uint256)": "76e8424f",
    "getUserInfoOfPrediction(uint256)": "93ca5fd4",
    "initialize(address)": "c4d66de8",
    "owner()": "8da5cb5b",
    "predict(uint256,uint256,uint256)": "1651b058",
    "predictions(uint256)": "004fbbb0",
    "proxiableUUID()": "52d1902d",
    "renounceOwnership()": "715018a6",
    "setChoicesLength(uint256,uint256)": "0e6b7cf1",
    "setEndTime(uint256,uint256)": "abfbac4b",
    "setPredictionURI(uint256,string)": "5fb2f6bb",
    "setRate(uint256,uint256)": "46df2ccb",
    "setToken(address)": "144fa6d7",
    "settle(uint256,uint256)": "9a9c29f6",
    "token()": "fc0c546a",
    "top3Users(uint256)": "42e6fe58",
    "transferOwnership(address)": "f2fde38b",
    "upgradeTo(address)": "3659cfe6",
    "upgradeToAndCall(address,bytes)": "4f1ef286",
    "userInfo(address,uint256)": "21ce919d",
    "userInfos(uint256,uint256)": "73a406e2"
  },
  "id": 0
}