{
  "_format": "hh-sol-artifact-1",
  "contractName": "MaidsToken",
  "sourceName": "contracts/MaidsToken.sol",
  "abi": [
    {
      "inputs": [],
      "stateMutability": "nonpayable",
      "type": "constructor"
    },
    {
      "inputs": [],
      "name": "InvalidArguments",
      "type": "error"
    },
    {
      "inputs": [],
      "name": "NotOperator",
      "type": "error"
    },
    {
      "anonymous": false,
      "inputs": [
        {
          "indexed": true,
          "internalType": "address",
          "name": "owner",
          "type": "address"
        },
        {
          "indexed": true,
          "internalType": "address",
          "name": "spender",
          "type": "address"
        },
        {
          "indexed": false,
          "internalType": "uint256",
          "name": "value",
          "type": "uint256"
        }
      ],
      "name": "Approval",
      "type": "event"
    },
    {
      "anonymous": false,
      "inputs": [
        {
          "indexed": true,
          "internalType": "address",
          "name": "previousOwner",
          "type": "address"
        },
        {
          "indexed": true,
          "internalType": "address",
          "name": "newOwner",
          "type": "address"
        }
      ],
      "name": "OwnershipTransferred",
      "type": "event"
    },
    {
      "anonymous": false,
      "inputs": [
        {
          "indexed": true,
          "internalType": "address",
          "name": "from",
          "type": "address"
        },
        {
          "indexed": true,
          "internalType": "address",
          "name": "to",
          "type": "address"
        },
        {
          "indexed": false,
          "internalType": "uint256",
          "name": "value",
          "type": "uint256"
        }
      ],
      "name": "Transfer",
      "type": "event"
    },
    {
      "inputs": [
        {
          "internalType": "address",
          "name": "address_",
          "type": "address"
        }
      ],
      "name": "addOperator",
      "outputs": [],
      "stateMutability": "nonpayable",
      "type": "function"
    },
    {
      "inputs": [
        {
          "components": [
            {
              "internalType": "address",
              "name": "to",
              "type": "address"
            },
            {
              "internalType": "uint256",
              "name": "amount",
              "type": "uint256"
            }
          ],
          "internalType": "struct MaidsToken.AirdropInfo[]",
          "name": "info_",
          "type": "tuple[]"
        }
      ],
      "name": "airdrop",
      "outputs": [],
      "stateMutability": "nonpayable",
      "type": "function"
    },
    {
      "inputs": [
        {
          "internalType": "address",
          "name": "owner_",
          "type": "address"
        },
        {
          "internalType": "address",
          "name": "spender_",
          "type": "address"
        }
      ],
      "name": "allowance",
      "outputs": [
        {
          "internalType": "uint256",
          "name": "",
          "type": "uint256"
        }
      ],
      "stateMutability": "view",
      "type": "function"
    },
    {
      "inputs": [
        {
          "internalType": "address",
          "name": "spender",
          "type": "address"
        },
        {
          "internalType": "uint256",
          "name": "amount",
          "type": "uint256"
        }
      ],
      "name": "approve",
      "outputs": [
        {
          "internalType": "bool",
          "name": "",
          "type": "bool"
        }
      ],
      "stateMutability": "nonpayable",
      "type": "function"
    },
    {
      "inputs": [
        {
          "internalType": "address",
          "name": "account_",
          "type": "address"
        }
      ],
      "name": "balanceOf",
      "outputs": [
        {
          "internalType": "uint256",
          "name": "",
          "type": "uint256"
        }
      ],
      "stateMutability": "view",
      "type": "function"
    },
    {
      "inputs": [],
      "name": "decimals",
      "outputs": [
        {
          "internalType": "uint8",
          "name": "",
          "type": "uint8"
        }
      ],
      "stateMutability": "view",
      "type": "function"
    },
    {
      "inputs": [
        {
          "internalType": "address",
          "name": "spender",
          "type": "address"
        },
        {
          "internalType": "uint256",
          "name": "subtractedValue",
          "type": "uint256"
        }
      ],
      "name": "decreaseAllowance",
      "outputs": [
        {
          "internalType": "bool",
          "name": "",
          "type": "bool"
        }
      ],
      "stateMutability": "nonpayable",
      "type": "function"
    },
    {
      "inputs": [
        {
          "internalType": "address",
          "name": "spender",
          "type": "address"
        },
        {
          "internalType": "uint256",
          "name": "addedValue",
          "type": "uint256"
        }
      ],
      "name": "increaseAllowance",
      "outputs": [
        {
          "internalType": "bool",
          "name": "",
          "type": "bool"
        }
      ],
      "stateMutability": "nonpayable",
      "type": "function"
    },
    {
      "inputs": [
        {
          "internalType": "address",
          "name": "to_",
          "type": "address"
        },
        {
          "internalType": "uint256",
          "name": "amount_",
          "type": "uint256"
        }
      ],
      "name": "mint",
      "outputs": [],
      "stateMutability": "nonpayable",
      "type": "function"
    },
    {
      "inputs": [],
      "name": "name",
      "outputs": [
        {
          "internalType": "string",
          "name": "",
          "type": "string"
        }
      ],
      "stateMutability": "view",
      "type": "function"
    },
    {
      "inputs": [],
      "name": "owner",
      "outputs": [
        {
          "internalType": "address",
          "name": "",
          "type": "address"
        }
      ],
      "stateMutability": "view",
      "type": "function"
    },
    {
      "inputs": [
        {
          "internalType": "address",
          "name": "address_",
          "type": "address"
        }
      ],
      "name": "removeOperator",
      "outputs": [],
      "stateMutability": "nonpayable",
      "type": "function"
    },
    {
      "inputs": [],
      "name": "renounceOwnership",
      "outputs": [],
      "stateMutability": "nonpayable",
      "type": "function"
    },
    {
      "inputs": [],
      "name": "symbol",
      "outputs": [
        {
          "internalType": "string",
          "name": "",
          "type": "string"
        }
      ],
      "stateMutability": "view",
      "type": "function"
    },
    {
      "inputs": [],
      "name": "totalSupply",
      "outputs": [
        {
          "internalType": "uint256",
          "name": "",
          "type": "uint256"
        }
      ],
      "stateMutability": "view",
      "type": "function"
    },
    {
      "inputs": [
        {
          "internalType": "address",
          "name": "to",
          "type": "address"
        },
        {
          "internalType": "uint256",
          "name": "amount",
          "type": "uint256"
        }
      ],
      "name": "transfer",
      "outputs": [
        {
          "internalType": "bool",
          "name": "",
          "type": "bool"
        }
      ],
      "stateMutability": "nonpayable",
      "type": "function"
    },
    {
      "inputs": [
        {
          "internalType": "address",
          "name": "from_",
          "type": "address"
        },
        {
          "internalType": "address",
          "name": "to_",
          "type": "address"
        },
        {
          "internalType": "uint256",
          "name": "amount_",
          "type": "uint256"
        }
      ],
      "name": "transferFrom",
      "outputs": [
        {
          "internalType": "bool",
          "name": "",
          "type": "bool"
        }
      ],
      "stateMutability": "nonpayable",
      "type": "function"
    },
    {
      "inputs": [
        {
          "internalType": "address",
          "name": "newOwner",
          "type": "address"
        }
      ],
      "name": "transferOwnership",
      "outputs": [],
      "stateMutability": "nonpayable",
      "type": "function"
    }
  ],
  "bytecode": "0x60806040523480156200001157600080fd5b506040805180820182526005808252644d4149445360d81b6020808401828152855180870190965292855284015281519192916200005291600391620000e1565b50805162000068906004906020840190620000e1565b505050620000856200007f6200008b60201b60201c565b6200008f565b620001c3565b3390565b600580546001600160a01b038381166001600160a01b0319831681179093556040519116919082907f8be0079c531659141344cd1fd0a4f28419497f9722a3daafe3b4186f6b6457e090600090a35050565b828054620000ef9062000187565b90600052602060002090601f0160209004810192826200011357600085556200015e565b82601f106200012e57805160ff19168380011785556200015e565b828001600101855582156200015e579182015b828111156200015e57825182559160200191906001019062000141565b506200016c92915062000170565b5090565b5b808211156200016c576000815560010162000171565b600181811c908216806200019c57607f821691505b602082108103620001bd57634e487b7160e01b600052602260045260246000fd5b50919050565b610e6180620001d36000396000f3fe608060405234801561001057600080fd5b50600436106101165760003560e01c80638da5cb5b116100a2578063a9059cbb11610071578063a9059cbb14610232578063ac8a584a14610245578063dd62ed3e14610258578063e0c9ffc61461026b578063f2fde38b1461027e57600080fd5b80638da5cb5b146101e957806395d89b41146102045780639870d7fe1461020c578063a457c2d71461021f57600080fd5b8063313ce567116100e9578063313ce56714610181578063395093511461019057806340c10f19146101a357806370a08231146101b8578063715018a6146101e157600080fd5b806306fdde031461011b578063095ea7b31461013957806318160ddd1461015c57806323b872dd1461016e575b600080fd5b610123610291565b6040516101309190610c1b565b60405180910390f35b61014c610147366004610c8c565b610323565b6040519015158152602001610130565b6002545b604051908152602001610130565b61014c61017c366004610cb6565b61033b565b60405160128152602001610130565b61014c61019e366004610c8c565b610350565b6101b66101b1366004610c8c565b610372565b005b6101606101c6366004610cf2565b6001600160a01b031660009081526020819052604090205490565b6101b66103b0565b6005546040516001600160a01b039091168152602001610130565b6101236103c4565b6101b661021a366004610cf2565b6103d3565b61014c61022d366004610c8c565b6103ff565b61014c610240366004610c8c565b61048a565b6101b6610253366004610cf2565b610498565b610160610266366004610d0d565b6104c1565b6101b6610279366004610d40565b6104f1565b6101b661028c366004610cf2565b6105fe565b6060600380546102a090610db5565b80601f01602080910402602001604051908101604052809291908181526020018280546102cc90610db5565b80156103195780601f106102ee57610100808354040283529160200191610319565b820191906000526020600020905b8154815290600101906020018083116102fc57829003601f168201915b5050505050905090565b600033610331818585610677565b5060019392505050565b600061034884848461079b565b949350505050565b60003361033181858561036383836104c1565b61036d9190610def565b610677565b3360009081526006602052604090205460ff166103a257604051631f0853c160e21b815260040160405180910390fd5b6103ac82826107b4565b5050565b6103b861089f565b6103c260006108f9565b565b6060600480546102a090610db5565b6103db61089f565b6001600160a01b03166000908152600660205260409020805460ff19166001179055565b6000338161040d82866104c1565b9050838110156104725760405162461bcd60e51b815260206004820152602560248201527f45524332303a2064656372656173656420616c6c6f77616e63652062656c6f77604482015264207a65726f60d81b60648201526084015b60405180910390fd5b61047f8286868403610677565b506001949350505050565b600033610331818585610958565b6104a061089f565b6001600160a01b03166000908152600660205260409020805460ff19169055565b6001600160a01b0380831660009081526001602090815260408083209385168352929052908120545b9392505050565b3360009081526006602052604090205460ff1661052157604051631f0853c160e21b815260040160405180910390fd5b60005b818110156105f957600083838381811061054057610540610e15565b6105569260206040909202019081019150610cf2565b6001600160a01b031614806105875750600083838381811061057a5761057a610e15565b9050604002016020013511155b156105a5576040516317dbc4cb60e21b815260040160405180910390fd5b6105f18383838181106105ba576105ba610e15565b6105d09260206040909202019081019150610cf2565b8484848181106105e2576105e2610e15565b905060400201602001356107b4565b600101610524565b505050565b61060661089f565b6001600160a01b03811661066b5760405162461bcd60e51b815260206004820152602660248201527f4f776e61626c653a206e6577206f776e657220697320746865207a65726f206160448201526564647265737360d01b6064820152608401610469565b610674816108f9565b50565b6001600160a01b0383166106d95760405162461bcd60e51b8152602060048201526024808201527f45524332303a20617070726f76652066726f6d20746865207a65726f206164646044820152637265737360e01b6064820152608401610469565b6001600160a01b03821661073a5760405162461bcd60e51b815260206004820152602260248201527f45524332303a20617070726f766520746f20746865207a65726f206164647265604482015261737360f01b6064820152608401610469565b6001600160a01b0383811660008181526001602090815260408083209487168084529482529182902085905590518481527f8c5be1e5ebec7d5bd14f71427d1e84f3dd0314c0f7b2291e5b200ac8c7c3b925910160405180910390a3505050565b6000336107a9858285610b33565b61047f858585610958565b6001600160a01b03821661080a5760405162461bcd60e51b815260206004820152601f60248201527f45524332303a206d696e7420746f20746865207a65726f2061646472657373006044820152606401610469565b61081660008383610ba7565b80600260008282546108289190610def565b90915550506001600160a01b03821660009081526020819052604081208054839290610855908490610def565b90915550506040518181526001600160a01b038316906000907fddf252ad1be2c89b69c2b068fc378daa952ba7f163c4a11628f55a4df523b3ef9060200160405180910390a35050565b6005546001600160a01b031633146103c25760405162461bcd60e51b815260206004820181905260248201527f4f776e61626c653a2063616c6c6572206973206e6f7420746865206f776e65726044820152606401610469565b600580546001600160a01b0383811673ffffffffffffffffffffffffffffffffffffffff19831681179093556040519116919082907f8be0079c531659141344cd1fd0a4f28419497f9722a3daafe3b4186f6b6457e090600090a35050565b6001600160a01b0383166109bc5760405162461bcd60e51b815260206004820152602560248201527f45524332303a207472616e736665722066726f6d20746865207a65726f206164604482015264647265737360d81b6064820152608401610469565b6001600160a01b038216610a1e5760405162461bcd60e51b815260206004820152602360248201527f45524332303a207472616e7366657220746f20746865207a65726f206164647260448201526265737360e81b6064820152608401610469565b610a29838383610ba7565b6001600160a01b03831660009081526020819052604090205481811015610aa15760405162461bcd60e51b815260206004820152602660248201527f45524332303a207472616e7366657220616d6f756e7420657863656564732062604482015265616c616e636560d01b6064820152608401610469565b6001600160a01b03808516600090815260208190526040808220858503905591851681529081208054849290610ad8908490610def565b92505081905550826001600160a01b0316846001600160a01b03167fddf252ad1be2c89b69c2b068fc378daa952ba7f163c4a11628f55a4df523b3ef84604051610b2491815260200190565b60405180910390a35b50505050565b6000610b3f84846104c1565b90506000198114610b2d5781811015610b9a5760405162461bcd60e51b815260206004820152601d60248201527f45524332303a20696e73756666696369656e7420616c6c6f77616e63650000006044820152606401610469565b610b2d8484848403610677565b6001600160a01b03831615801590610bd857506001600160a01b03831660009081526006602052604090205460ff16155b8015610bfd57506001600160a01b03821660009081526006602052604090205460ff16155b156105f957604051631f0853c160e21b815260040160405180910390fd5b600060208083528351808285015260005b81811015610c4857858101830151858201604001528201610c2c565b81811115610c5a576000604083870101525b50601f01601f1916929092016040019392505050565b80356001600160a01b0381168114610c8757600080fd5b919050565b60008060408385031215610c9f57600080fd5b610ca883610c70565b946020939093013593505050565b600080600060608486031215610ccb57600080fd5b610cd484610c70565b9250610ce260208501610c70565b9150604084013590509250925092565b600060208284031215610d0457600080fd5b6104ea82610c70565b60008060408385031215610d2057600080fd5b610d2983610c70565b9150610d3760208401610c70565b90509250929050565b60008060208385031215610d5357600080fd5b823567ffffffffffffffff80821115610d6b57600080fd5b818501915085601f830112610d7f57600080fd5b813581811115610d8e57600080fd5b8660208260061b8501011115610da357600080fd5b60209290920196919550909350505050565b600181811c90821680610dc957607f821691505b602082108103610de957634e487b7160e01b600052602260045260246000fd5b50919050565b60008219821115610e1057634e487b7160e01b600052601160045260246000fd5b500190565b634e487b7160e01b600052603260045260246000fdfea2646970667358221220635290bb1976d6ae536aff112e915c4d72c0f5e5c650caa3f481e2933e8726b864736f6c634300080d0033",
  "linkReferences": {},
  "deployedLinkReferences": {}
}