{
  "_format": "hh-sol-artifact-1",
  "contractName": "MaidsVoting",
  "sourceName": "contracts/MaidsVoting.sol",
  "abi": [
    {
      "inputs": [
        {
          "internalType": "address",
          "name": "_token",
          "type": "address"
        }
      ],
      "stateMutability": "nonpayable",
      "type": "constructor"
    },
    {
      "inputs": [],
      "name": "TimeUp",
      "type": "error"
    },
    {
      "inputs": [],
      "name": "insufficientAllowanceError",
      "type": "error"
    },
    {
      "anonymous": false,
      "inputs": [
        {
          "indexed": true,
          "internalType": "address",
          "name": "previousOwner",
          "type": "address"
        },
        {
          "indexed": true,
          "internalType": "address",
          "name": "newOwner",
          "type": "address"
        }
      ],
      "name": "OwnershipTransferred",
      "type": "event"
    },
    {
      "inputs": [],
      "name": "getAllVotes",
      "outputs": [
        {
          "components": [
            {
              "internalType": "uint256",
              "name": "id",
              "type": "uint256"
            },
            {
              "internalType": "uint256",
              "name": "amount",
              "type": "uint256"
            }
          ],
          "internalType": "struct MaidsVoting.Vote[2023]",
          "name": "",
          "type": "tuple[2023]"
        }
      ],
      "stateMutability": "view",
      "type": "function"
    },
    {
      "inputs": [
        {
          "internalType": "uint256",
          "name": "id",
          "type": "uint256"
        }
      ],
      "name": "getVoteAmountsOfToken",
      "outputs": [
        {
          "internalType": "uint256",
          "name": "",
          "type": "uint256"
        }
      ],
      "stateMutability": "view",
      "type": "function"
    },
    {
      "inputs": [
        {
          "internalType": "address",
          "name": "user",
          "type": "address"
        },
        {
          "internalType": "uint256",
          "name": "id",
          "type": "uint256"
        }
      ],
      "name": "getVoteAmountsOfUser",
      "outputs": [
        {
          "internalType": "uint256",
          "name": "",
          "type": "uint256"
        }
      ],
      "stateMutability": "view",
      "type": "function"
    },
    {
      "inputs": [],
      "name": "getVotedAddress",
      "outputs": [
        {
          "internalType": "address[]",
          "name": "",
          "type": "address[]"
        }
      ],
      "stateMutability": "view",
      "type": "function"
    },
    {
      "inputs": [
        {
          "internalType": "uint256",
          "name": "id",
          "type": "uint256"
        }
      ],
      "name": "getVotedAddressOfToken",
      "outputs": [
        {
          "internalType": "address[]",
          "name": "",
          "type": "address[]"
        }
      ],
      "stateMutability": "view",
      "type": "function"
    },
    {
      "inputs": [],
      "name": "owner",
      "outputs": [
        {
          "internalType": "address",
          "name": "",
          "type": "address"
        }
      ],
      "stateMutability": "view",
      "type": "function"
    },
    {
      "inputs": [],
      "name": "renounceOwnership",
      "outputs": [],
      "stateMutability": "nonpayable",
      "type": "function"
    },
    {
      "inputs": [
        {
          "internalType": "uint256",
          "name": "newEndTime",
          "type": "uint256"
        }
      ],
      "name": "setEndTime",
      "outputs": [],
      "stateMutability": "nonpayable",
      "type": "function"
    },
    {
      "inputs": [],
      "name": "token",
      "outputs": [
        {
          "internalType": "contract IMaidsToken",
          "name": "",
          "type": "address"
        }
      ],
      "stateMutability": "view",
      "type": "function"
    },
    {
      "inputs": [
        {
          "internalType": "address",
          "name": "newOwner",
          "type": "address"
        }
      ],
      "name": "transferOwnership",
      "outputs": [],
      "stateMutability": "nonpayable",
      "type": "function"
    },
    {
      "inputs": [
        {
          "internalType": "uint256",
          "name": "id",
          "type": "uint256"
        },
        {
          "internalType": "uint256",
          "name": "amount",
          "type": "uint256"
        }
      ],
      "name": "vote",
      "outputs": [],
      "stateMutability": "nonpayable",
      "type": "function"
    }
  ],
  "bytecode": "0x6080604052636493107060015534801561001857600080fd5b5060405161099a38038061099a833981016040819052610037916100b5565b61004033610065565b600280546001600160a01b0319166001600160a01b03929092169190911790556100e5565b600080546001600160a01b038381166001600160a01b0319831681178455604051919092169283917f8be0079c531659141344cd1fd0a4f28419497f9722a3daafe3b4186f6b6457e09190a35050565b6000602082840312156100c757600080fd5b81516001600160a01b03811681146100de57600080fd5b9392505050565b6108a6806100f46000396000f3fe608060405234801561001057600080fd5b50600436106100b95760003560e01c8063b384abef11610081578063eaedf0441161005b578063eaedf044146101a4578063f2fde38b146101ac578063fc0c546a146101bf57600080fd5b8063b384abef14610148578063ccb98ffc1461015b578063e5d1ae2a1461016e57600080fd5b80631c3aa4b5146100be578063715018a6146100e4578063851b6ef2146100ee5780638da5cb5b14610103578063ae16891314610128575b600080fd5b6100d16100cc3660046106c9565b6101d2565b6040519081526020015b60405180910390f35b6100ec6101f7565b005b6100f661020b565b6040516100db91906106e2565b6000546001600160a01b03165b6040516001600160a01b0390911681526020016100db565b61013b6101363660046106c9565b61026d565b6040516100db9190610722565b6100ec61015636600461076f565b6102d9565b6100ec6101693660046106c9565b6104f6565b6100d161017c3660046107ad565b6001600160a01b03919091166000908152600360209081526040808320938352929052205490565b61013b610503565b6100ec6101ba3660046107d7565b610566565b600254610110906001600160a01b031681565b60006005826107e781106101e8576101e86107f9565b60020201600101549050919050565b6101ff6105e4565b610209600061063e565b565b61021361068e565b6040805161fce0810190915260056107e76000835b82821015610264578382600202016040518060400160405290816000820154815260200160018201548152505081526020019060010190610228565b50505050905090565b6000818152600460209081526040918290208054835181840281018401909452808452606093928301828280156102cd57602002820191906000526020600020905b81546001600160a01b031681526001909101906020018083116102af575b50505050509050919050565b6001544211156102fc57604051633a47888760e21b815260040160405180910390fd5b600254604051636eb1769f60e11b81523360048201523060248201526000916001600160a01b03169063dd62ed3e90604401602060405180830381865afa15801561034b573d6000803e3d6000fd5b505050506040513d601f19601f8201168201806040525081019061036f919061080f565b9050818110156103925760405163586d6f7b60e01b815260040160405180910390fd5b6002546040516323b872dd60e01b8152336004820152306024820152604481018490526001600160a01b03909116906323b872dd906064016020604051808303816000875af11580156103e9573d6000803e3d6000fd5b505050506040513d601f19601f8201168201806040525081019061040d9190610828565b50826005846107e78110610423576104236107f9565b6002020155816005846107e7811061043d5761043d6107f9565b600202016001016000828254610453919061084a565b90915550503360009081526003602090815260408083208684529091528120805484929061048290849061084a565b9091555050610fd3805460018082019092557fd62dc3327e895ae7a40e7a0d6705413ba5618326c3ab0790ab5934d38dbb2060018054336001600160a01b03199182168117909255600095865260046020908152604087208054948501815587529095209091018054909416179092555050565b6104fe6105e4565b600155565b6060610fd380548060200260200160405190810160405280929190818152602001828054801561055c57602002820191906000526020600020905b81546001600160a01b0316815260019091019060200180831161053e575b5050505050905090565b61056e6105e4565b6001600160a01b0381166105d85760405162461bcd60e51b815260206004820152602660248201527f4f776e61626c653a206e6577206f776e657220697320746865207a65726f206160448201526564647265737360d01b60648201526084015b60405180910390fd5b6105e18161063e565b50565b6000546001600160a01b031633146102095760405162461bcd60e51b815260206004820181905260248201527f4f776e61626c653a2063616c6c6572206973206e6f7420746865206f776e657260448201526064016105cf565b600080546001600160a01b038381166001600160a01b0319831681178455604051919092169283917f8be0079c531659141344cd1fd0a4f28419497f9722a3daafe3b4186f6b6457e09190a35050565b6040518061fce001604052806107e7905b604080518082019091526000808252602082015281526020019060019003908161069f5790505090565b6000602082840312156106db57600080fd5b5035919050565b6201f9c08101818360005b6107e78110156107195781518051845260209081015181850152604090930192909101906001016106ed565b50505092915050565b6020808252825182820181905260009190848201906040850190845b818110156107635783516001600160a01b03168352928401929184019160010161073e565b50909695505050505050565b6000806040838503121561078257600080fd5b50508035926020909101359150565b80356001600160a01b03811681146107a857600080fd5b919050565b600080604083850312156107c057600080fd5b6107c983610791565b946020939093013593505050565b6000602082840312156107e957600080fd5b6107f282610791565b9392505050565b634e487b7160e01b600052603260045260246000fd5b60006020828403121561082157600080fd5b5051919050565b60006020828403121561083a57600080fd5b815180151581146107f257600080fd5b6000821982111561086b57634e487b7160e01b600052601160045260246000fd5b50019056fea2646970667358221220b9cce1fa92fc55782b8d56332c5b18fb3ae57f657af510fcb8f3ef8df97b2a3664736f6c634300080d0033",
  "linkReferences": {},
  "deployedLinkReferences": {}
}