{
  "abi": [
    {
      "inputs": [],
      "stateMutability": "nonpayable",
      "type": "constructor"
    },
    {
      "inputs": [],
      "name": "MaidsPrediction_AlreadyClaimed",
      "type": "error"
    },
    {
      "inputs": [],
      "name": "MaidsPrediction_AlreadyPredicted",
      "type": "error"
    },
    {
      "inputs": [],
      "name": "MaidsPrediction_InsufficientAllowance",
      "type": "error"
    },
    {
      "inputs": [],
      "name": "MaidsPrediction_InsufficientAmount",
      "type": "error"
    },
    {
      "inputs": [],
      "name": "MaidsPrediction_InvalidChoice",
      "type": "error"
    },
    {
      "inputs": [],
      "name": "MaidsPrediction_InvalidPredictionId",
      "type": "error"
    },
    {
      "inputs": [],
      "name": "MaidsPrediction_InvalidPredictionURI",
      "type": "error"
    },
    {
      "inputs": [],
      "name": "MaidsPrediction_InvalidRate",
      "type": "error"
    },
    {
      "inputs": [],
      "name": "MaidsPrediction_NotHit",
      "type": "error"
    },
    {
      "inputs": [],
      "name": "MaidsPrediction_NotSettled",
      "type": "error"
    },
    {
      "inputs": [],
      "name": "MaidsPrediction_TimeUp",
      "type": "error"
    },
    {
      "inputs": [],
      "name": "MaidsPrediction_ZeroChoices",
      "type": "error"
    },
    {
      "anonymous": false,
      "inputs": [
        {
          "indexed": false,
          "internalType": "address",
          "name": "previousAdmin",
          "type": "address"
        },
        {
          "indexed": false,
          "internalType": "address",
          "name": "newAdmin",
          "type": "address"
        }
      ],
      "name": "AdminChanged",
      "type": "event"
    },
    {
      "anonymous": false,
      "inputs": [
        {
          "indexed": true,
          "internalType": "address",
          "name": "beacon",
          "type": "address"
        }
      ],
      "name": "BeaconUpgraded",
      "type": "event"
    },
    {
      "anonymous": false,
      "inputs": [
        {
          "indexed": false,
          "internalType": "uint8",
          "name": "version",
          "type": "uint8"
        }
      ],
      "name": "Initialized",
      "type": "event"
    },
    {
      "anonymous": false,
      "inputs": [
        {
          "indexed": true,
          "internalType": "address",
          "name": "previousOwner",
          "type": "address"
        },
        {
          "indexed": true,
          "internalType": "address",
          "name": "newOwner",
          "type": "address"
        }
      ],
      "name": "OwnershipTransferred",
      "type": "event"
    },
    {
      "anonymous": false,
      "inputs": [
        {
          "indexed": true,
          "internalType": "uint256",
          "name": "id_",
          "type": "uint256"
        },
        {
          "indexed": false,
          "internalType": "uint256",
          "name": "choicesLength_",
          "type": "uint256"
        },
        {
          "indexed": false,
          "internalType": "string",
          "name": "predictionURI_",
          "type": "string"
        },
        {
          "indexed": false,
          "internalType": "uint256",
          "name": "rate_",
          "type": "uint256"
        },
        {
          "indexed": false,
          "internalType": "uint256",
          "name": "endTime_",
          "type": "uint256"
        }
      ],
      "name": "PredictionCreated",
      "type": "event"
    },
    {
      "anonymous": false,
      "inputs": [
        {
          "indexed": true,
          "internalType": "uint256",
          "name": "id_",
          "type": "uint256"
        },
        {
          "indexed": false,
          "internalType": "uint256",
          "name": "result_",
          "type": "uint256"
        }
      ],
      "name": "Settle",
      "type": "event"
    },
    {
      "anonymous": false,
      "inputs": [
        {
          "indexed": true,
          "internalType": "address",
          "name": "implementation",
          "type": "address"
        }
      ],
      "name": "Upgraded",
      "type": "event"
    },
    {
      "inputs": [
        {
          "internalType": "uint256",
          "name": "id",
          "type": "uint256"
        }
      ],
      "name": "claimReward",
      "outputs": [],
      "stateMutability": "nonpayable",
      "type": "function"
    },
    {
      "inputs": [
        {
          "internalType": "uint256",
          "name": "choicesLength",
          "type": "uint256"
        },
        {
          "internalType": "string",
          "name": "predictionURI",
          "type": "string"
        },
        {
          "internalType": "uint256",
          "name": "rate",
          "type": "uint256"
        },
        {
          "internalType": "uint256",
          "name": "endTime",
          "type": "uint256"
        }
      ],
      "name": "createPrediction",
      "outputs": [],
      "stateMutability": "nonpayable",
      "type": "function"
    },
    {
      "inputs": [],
      "name": "getAllPredictions",
      "outputs": [
        {
          "components": [
            {
              "internalType": "uint256",
              "name": "id",
              "type": "uint256"
            },
            {
              "internalType": "uint256",
              "name": "choicesLength",
              "type": "uint256"
            },
            {
              "internalType": "string",
              "name": "predictionURI",
              "type": "string"
            },
            {
              "internalType": "uint256",
              "name": "rate",
              "type": "uint256"
            },
            {
              "internalType": "uint256",
              "name": "endTime",
              "type": "uint256"
            },
            {
              "internalType": "uint256",
              "name": "result",
              "type": "uint256"
            },
            {
              "internalType": "bool",
              "name": "isSettled",
              "type": "bool"
            }
          ],
          "internalType": "struct MaidsPrediction.Prediction[]",
          "name": "",
          "type": "tuple[]"
        }
      ],
      "stateMutability": "view",
      "type": "function"
    },
    {
      "inputs": [],
      "name": "getImplementation",
      "outputs": [
        {
          "internalType": "address",
          "name": "",
          "type": "address"
        }
      ],
      "stateMutability": "view",
      "type": "function"
    },
    {
      "inputs": [
        {
          "internalType": "uint256",
          "name": "id",
          "type": "uint256"
        }
      ],
      "name": "getPrediction",
      "outputs": [
        {
          "components": [
            {
              "internalType": "uint256",
              "name": "id",
              "type": "uint256"
            },
            {
              "internalType": "uint256",
              "name": "choicesLength",
              "type": "uint256"
            },
            {
              "internalType": "string",
              "name": "predictionURI",
              "type": "string"
            },
            {
              "internalType": "uint256",
              "name": "rate",
              "type": "uint256"
            },
            {
              "internalType": "uint256",
              "name": "endTime",
              "type": "uint256"
            },
            {
              "internalType": "uint256",
              "name": "result",
              "type": "uint256"
            },
            {
              "internalType": "bool",
              "name": "isSettled",
              "type": "bool"
            }
          ],
          "internalType": "struct MaidsPrediction.Prediction",
          "name": "",
          "type": "tuple"
        }
      ],
      "stateMutability": "view",
      "type": "function"
    },
    {
      "inputs": [
        {
          "internalType": "address",
          "name": "user",
          "type": "address"
        },
        {
          "internalType": "uint256",
          "name": "id",
          "type": "uint256"
        }
      ],
      "name": "getRewardAmount",
      "outputs": [
        {
          "internalType": "uint256",
          "name": "",
          "type": "uint256"
        }
      ],
      "stateMutability": "view",
      "type": "function"
    },
    {
      "inputs": [],
      "name": "getTop3Info",
      "outputs": [
        {
          "components": [
            {
              "internalType": "address",
              "name": "user",
              "type": "address"
            },
            {
              "internalType": "uint256",
              "name": "amount",
              "type": "uint256"
            }
          ],
          "internalType": "struct MaidsPrediction.TopUserInfo[3]",
          "name": "",
          "type": "tuple[3]"
        }
      ],
      "stateMutability": "view",
      "type": "function"
    },
    {
      "inputs": [
        {
          "internalType": "address",
          "name": "user",
          "type": "address"
        },
        {
          "internalType": "uint256",
          "name": "id",
          "type": "uint256"
        }
      ],
      "name": "getUserInfo",
      "outputs": [
        {
          "components": [
            {
              "internalType": "uint256",
              "name": "amount",
              "type": "uint256"
            },
            {
              "internalType": "uint256",
              "name": "choice",
              "type": "uint256"
            },
            {
              "internalType": "bool",
              "name": "isPredicted",
              "type": "bool"
            },
            {
              "internalType": "bool",
              "name": "isClaimed",
              "type": "bool"
            }
          ],
          "internalType": "struct MaidsPrediction.UserInfo",
          "name": "",
          "type": "tuple"
        }
      ],
      "stateMutability": "view",
      "type": "function"
    },
    {
      "inputs": [
        {
          "internalType": "uint256",
          "name": "id",
          "type": "uint256"
        }
      ],
      "name": "getUserInfoOfPrediction",
      "outputs": [
        {
          "components": [
            {
              "internalType": "uint256",
              "name": "amount",
              "type": "uint256"
            },
            {
              "internalType": "uint256",
              "name": "choice",
              "type": "uint256"
            },
            {
              "internalType": "bool",
              "name": "isPredicted",
              "type": "bool"
            },
            {
              "internalType": "bool",
              "name": "isClaimed",
              "type": "bool"
            }
          ],
          "internalType": "struct MaidsPrediction.UserInfo[]",
          "name": "",
          "type": "tuple[]"
        }
      ],
      "stateMutability": "view",
      "type": "function"
    },
    {
      "inputs": [
        {
          "internalType": "address",
          "name": "token_",
          "type": "address"
        }
      ],
      "name": "initialize",
      "outputs": [],
      "stateMutability": "nonpayable",
      "type": "function"
    },
    {
      "inputs": [],
      "name": "owner",
      "outputs": [
        {
          "internalType": "address",
          "name": "",
          "type": "address"
        }
      ],
      "stateMutability": "view",
      "type": "function"
    },
    {
      "inputs": [
        {
          "internalType": "uint256",
          "name": "id",
          "type": "uint256"
        },
        {
          "internalType": "uint256",
          "name": "amount",
          "type": "uint256"
        },
        {
          "internalType": "uint256",
          "name": "choice",
          "type": "uint256"
        }
      ],
      "name": "predict",
      "outputs": [],
      "stateMutability": "nonpayable",
      "type": "function"
    },
    {
      "inputs": [
        {
          "internalType": "uint256",
          "name": "",
          "type": "uint256"
        }
      ],
      "name": "predictions",
      "outputs": [
        {
          "internalType": "uint256",
          "name": "id",
          "type": "uint256"
        },
        {
          "internalType": "uint256",
          "name": "choicesLength",
          "type": "uint256"
        },
        {
          "internalType": "string",
          "name": "predictionURI",
          "type": "string"
        },
        {
          "internalType": "uint256",
          "name": "rate",
          "type": "uint256"
        },
        {
          "internalType": "uint256",
          "name": "endTime",
          "type": "uint256"
        },
        {
          "internalType": "uint256",
          "name": "result",
          "type": "uint256"
        },
        {
          "internalType": "bool",
          "name": "isSettled",
          "type": "bool"
        }
      ],
      "stateMutability": "view",
      "type": "function"
    },
    {
      "inputs": [],
      "name": "proxiableUUID",
      "outputs": [
        {
          "internalType": "bytes32",
          "name": "",
          "type": "bytes32"
        }
      ],
      "stateMutability": "view",
      "type": "function"
    },
    {
      "inputs": [],
      "name": "renounceOwnership",
      "outputs": [],
      "stateMutability": "nonpayable",
      "type": "function"
    },
    {
      "inputs": [
        {
          "internalType": "uint256",
          "name": "id",
          "type": "uint256"
        },
        {
          "internalType": "uint256",
          "name": "choicesLength",
          "type": "uint256"
        }
      ],
      "name": "setChoicesLength",
      "outputs": [],
      "stateMutability": "nonpayable",
      "type": "function"
    },
    {
      "inputs": [
        {
          "internalType": "uint256",
          "name": "id",
          "type": "uint256"
        },
        {
          "internalType": "uint256",
          "name": "endTime",
          "type": "uint256"
        }
      ],
      "name": "setEndTime",
      "outputs": [],
      "stateMutability": "nonpayable",
      "type": "function"
    },
    {
      "inputs": [
        {
          "internalType": "uint256",
          "name": "id",
          "type": "uint256"
        },
        {
          "internalType": "string",
          "name": "predictionURI",
          "type": "string"
        }
      ],
      "name": "setPredictionURI",
      "outputs": [],
      "stateMutability": "nonpayable",
      "type": "function"
    },
    {
      "inputs": [
        {
          "internalType": "address",
          "name": "address_",
          "type": "address"
        }
      ],
      "name": "setToken",
      "outputs": [],
      "stateMutability": "nonpayable",
      "type": "function"
    },
    {
      "inputs": [
        {
          "internalType": "uint256",
          "name": "id",
          "type": "uint256"
        },
        {
          "internalType": "uint256",
          "name": "choice",
          "type": "uint256"
        }
      ],
      "name": "settle",
      "outputs": [],
      "stateMutability": "nonpayable",
      "type": "function"
    },
    {
      "inputs": [],
      "name": "token",
      "outputs": [
        {
          "internalType": "contract IMaidsToken",
          "name": "",
          "type": "address"
        }
      ],
      "stateMutability": "view",
      "type": "function"
    },
    {
      "inputs": [
        {
          "internalType": "uint256",
          "name": "",
          "type": "uint256"
        }
      ],
      "name": "top3Users",
      "outputs": [
        {
          "internalType": "address",
          "name": "user",
          "type": "address"
        },
        {
          "internalType": "uint256",
          "name": "amount",
          "type": "uint256"
        }
      ],
      "stateMutability": "view",
      "type": "function"
    },
    {
      "inputs": [
        {
          "internalType": "address",
          "name": "newOwner",
          "type": "address"
        }
      ],
      "name": "transferOwnership",
      "outputs": [],
      "stateMutability": "nonpayable",
      "type": "function"
    },
    {
      "inputs": [
        {
          "internalType": "address",
          "name": "newImplementation",
          "type": "address"
        }
      ],
      "name": "upgradeTo",
      "outputs": [],
      "stateMutability": "nonpayable",
      "type": "function"
    },
    {
      "inputs": [
        {
          "internalType": "address",
          "name": "newImplementation",
          "type": "address"
        },
        {
          "internalType": "bytes",
          "name": "data",
          "type": "bytes"
        }
      ],
      "name": "upgradeToAndCall",
      "outputs": [],
      "stateMutability": "payable",
      "type": "function"
    },
    {
      "inputs": [
        {
          "internalType": "address",
          "name": "",
          "type": "address"
        },
        {
          "internalType": "uint256",
          "name": "id",
          "type": "uint256"
        }
      ],
      "name": "userInfo",
      "outputs": [
        {
          "internalType": "uint256",
          "name": "amount",
          "type": "uint256"
        },
        {
          "internalType": "uint256",
          "name": "choice",
          "type": "uint256"
        },
        {
          "internalType": "bool",
          "name": "isPredicted",
          "type": "bool"
        },
        {
          "internalType": "bool",
          "name": "isClaimed",
          "type": "bool"
        }
      ],
      "stateMutability": "view",
      "type": "function"
    },
    {
      "inputs": [
        {
          "internalType": "uint256",
          "name": "",
          "type": "uint256"
        },
        {
          "internalType": "uint256",
          "name": "",
          "type": "uint256"
        }
      ],
      "name": "userInfos",
      "outputs": [
        {
          "internalType": "uint256",
          "name": "amount",
          "type": "uint256"
        },
        {
          "internalType": "uint256",
          "name": "choice",
          "type": "uint256"
        },
        {
          "internalType": "bool",
          "name": "isPredicted",
          "type": "bool"
        },
        {
          "internalType": "bool",
          "name": "isClaimed",
          "type": "bool"
        }
      ],
      "stateMutability": "view",
      "type": "function"
    }
  ],
  "bytecode": {
    "object": "0x60a0604052306080523480156200001557600080fd5b506200002062000026565b620000e8565b600054610100900460ff1615620000935760405162461bcd60e51b815260206004820152602760248201527f496e697469616c697a61626c653a20636f6e747261637420697320696e697469604482015266616c697a696e6760c81b606482015260840160405180910390fd5b60005460ff9081161015620000e6576000805460ff191660ff9081179091556040519081527f7f26b83ff96e1f2b6a682f133852f6798a09c465da95921460cefb38474024989060200160405180910390a15b565b60805161288b62000120600039600081816109fa01528181610a4301528181610af701528181610b370152610bb3015261288b6000f3fe60806040526004361061019b5760003560e01c806376e8424f116100ec578063bc1c72851161008a578063da4e855611610064578063da4e855614610528578063f2fde38b14610548578063fc0c546a14610568578063fe83bece1461058857600080fd5b8063bc1c7285146104c6578063c4d66de8146104e8578063d278d5f41461050857600080fd5b80639a9c29f6116100c65780639a9c29f614610451578063aaf10f4214610471578063abfbac4b14610486578063ae169a50146104a657600080fd5b806376e8424f146103c55780638da5cb5b146103f257806393ca5fd41461042457600080fd5b806342e6fe5811610159578063538a5da711610133578063538a5da71461034e5780635fb2f6bb14610370578063715018a61461039057806373a406e2146103a557600080fd5b806342e6fe58146102d95780634f1ef2861461031857806352d1902d1461032b57600080fd5b80624fbbb0146101a05780630e6b7cf1146101dc578063144fa6d7146101fe5780631651b0581461021e57806321ce919d1461023e5780633659cfe6146102b9575b600080fd5b3480156101ac57600080fd5b506101c06101bb366004611fd5565b6105b5565b6040516101d3979695949392919061203e565b60405180910390f35b3480156101e857600080fd5b506101fc6101f7366004612085565b610693565b005b34801561020a57600080fd5b506101fc6102193660046120c3565b6106ea565b34801561022a57600080fd5b506101fc6102393660046120de565b610714565b34801561024a57600080fd5b5061029161025936600461210a565b60cb60209081526000928352604080842090915290825290208054600182015460029092015490919060ff8082169161010090041684565b60408051948552602085019390935290151591830191909152151560608201526080016101d3565b3480156102c557600080fd5b506101fc6102d43660046120c3565b6109f0565b3480156102e557600080fd5b506102f96102f4366004611fd5565b610ac1565b604080516001600160a01b0390931683526020830191909152016101d3565b6101fc6103263660046121c0565b610aed565b34801561033757600080fd5b50610340610ba6565b6040519081526020016101d3565b34801561035a57600080fd5b50610363610c59565b6040516101d39190612222565b34801561037c57600080fd5b506101fc61038b366004612288565b610cbe565b34801561039c57600080fd5b506101fc610d1e565b3480156103b157600080fd5b506102916103c0366004612085565b610d32565b3480156103d157600080fd5b506103e56103e036600461210a565b610d80565b6040516101d391906122c5565b3480156103fe57600080fd5b506033546001600160a01b03165b6040516001600160a01b0390911681526020016101d3565b34801561043057600080fd5b5061044461043f366004611fd5565b610e3c565b6040516101d391906122f4565b34801561045d57600080fd5b506101fc61046c366004612085565b610f2f565b34801561047d57600080fd5b5061040c611017565b34801561049257600080fd5b506101fc6104a1366004612085565b611026565b3480156104b257600080fd5b506101fc6104c1366004611fd5565b61107d565b3480156104d257600080fd5b506104db6111f2565b6040516101d391906123c6565b3480156104f457600080fd5b506101fc6105033660046120c3565b611321565b34801561051457600080fd5b506101fc610523366004612428565b611455565b34801561053457600080fd5b5061034061054336600461210a565b611629565b34801561055457600080fd5b506101fc6105633660046120c3565b611687565b34801561057457600080fd5b5060c95461040c906001600160a01b031681565b34801561059457600080fd5b506105a86105a3366004611fd5565b6116fd565b6040516101d3919061247f565b60ca81815481106105c557600080fd5b90600052602060002090600702016000915090508060000154908060010154908060020180546105f490612492565b80601f016020809104026020016040519081016040528092919081815260200182805461062090612492565b801561066d5780601f106106425761010080835404028352916020019161066d565b820191906000526020600020905b81548152906001019060200180831161065057829003601f168201915b505050506003830154600484015460058501546006909501549394919390925060ff1687565b61069b61189f565b60ca5482106106bd5760405163068f3e9360e01b815260040160405180910390fd5b8060ca83815481106106d1576106d16124cc565b9060005260206000209060070201600101819055505050565b6106f261189f565b60c980546001600160a01b0319166001600160a01b0392909216919091179055565b60ca5483106107365760405163068f3e9360e01b815260040160405180910390fd5b68056bc75e2d631000008210156107605760405163081c661b60e11b815260040160405180910390fd5b60ca8381548110610773576107736124cc565b90600052602060002090600702016001015481106107a457604051635aad106160e11b815260040160405180910390fd5b60ca83815481106107b7576107b76124cc565b9060005260206000209060070201600401544211156107e9576040516311df950760e31b815260040160405180910390fd5b33600090815260cb6020908152604080832086845290915290206002015460ff16156108285760405163925df25760e01b815260040160405180910390fd5b60c954604051636eb1769f60e11b81523360048201523060248201526000916001600160a01b03169063dd62ed3e90604401602060405180830381865afa158015610877573d6000803e3d6000fd5b505050506040513d601f19601f8201168201806040525081019061089b91906124e2565b9050828110156108be57604051635719143960e11b815260040160405180910390fd5b60c9546040516323b872dd60e01b8152336004820152306024820152604481018590526001600160a01b03909116906323b872dd906064016020604051808303816000875af1158015610915573d6000803e3d6000fd5b505050506040513d601f19601f8201168201806040525081019061093991906124fb565b5050604080516080810182529283526020808401928352600184830181815260006060870181815233825260cb8552858220988252978452848120875181558651818501558251600291820180548b51151561010090810261ff0019941515851661ffff19938416171790925560cc88529784208054808801825590855296909320985160039096029098019485559551928401929092555191909301805495511515909302901515909316931692909217179055565b6001600160a01b037f0000000000000000000000000000000000000000000000000000000000000000163003610a415760405162461bcd60e51b8152600401610a389061251d565b60405180910390fd5b7f00000000000000000000000000000000000000000000000000000000000000006001600160a01b0316610a736118f9565b6001600160a01b031614610a995760405162461bcd60e51b8152600401610a3890612569565b610aa281611915565b60408051600080825260208201909252610abe9183919061191d565b50565b60cd8160038110610ad157600080fd5b6002020180546001909101546001600160a01b03909116915082565b6001600160a01b037f0000000000000000000000000000000000000000000000000000000000000000163003610b355760405162461bcd60e51b8152600401610a389061251d565b7f00000000000000000000000000000000000000000000000000000000000000006001600160a01b0316610b676118f9565b6001600160a01b031614610b8d5760405162461bcd60e51b8152600401610a3890612569565b610b9682611915565b610ba28282600161191d565b5050565b6000306001600160a01b037f00000000000000000000000000000000000000000000000000000000000000001614610c465760405162461bcd60e51b815260206004820152603860248201527f555550535570677261646561626c653a206d757374206e6f742062652063616c60448201527f6c6564207468726f7567682064656c656761746563616c6c00000000000000006064820152608401610a38565b5060008051602061280f83398151915290565b610c61611f9c565b604080516060810190915260cd60036000835b82821015610cb5576040805180820190915260028302850180546001600160a01b031682526001908101546020808401919091529183529092019101610c74565b50505050905090565b610cc661189f565b60ca548210610ce85760405163068f3e9360e01b815260040160405180910390fd5b8060ca8381548110610cfc57610cfc6124cc565b90600052602060002090600702016002019081610d199190612603565b505050565b610d2661189f565b610d306000611a88565b565b60cc6020528160005260406000208181548110610d4e57600080fd5b600091825260209091206003909102018054600182015460029092015490935090915060ff8082169161010090041684565b60408051608081018252600080825260208201819052918101829052606081019190915260ca548210610dd75750604080516080810182526000808252602082018190529181018290526060810191909152610e36565b506001600160a01b038216600090815260cb602090815260408083208484528252918290208251608081018452815481526001820154928101929092526002015460ff8082161515938301939093526101009004909116151560608201525b92915050565b60ca546060908210610e99576040805160008082526020820190925290610e92565b604080516080810182526000808252602080830182905292820181905260608201528252600019909201910181610e5e5790505b5092915050565b600082815260cc6020908152604080832080548251818502810185019093528083529193909284015b82821015610f245760008481526020908190206040805160808101825260038602909201805483526001808201548486015260029091015460ff8082161515938501939093526101009004909116151560608301529083529092019101610ec2565b505050509050919050565b610f3761189f565b60ca548210610f595760405163068f3e9360e01b815260040160405180910390fd5b60ca8281548110610f6c57610f6c6124cc565b9060005260206000209060070201600101548110610f9d57604051635aad106160e11b815260040160405180910390fd5b600060ca8381548110610fb257610fb26124cc565b600091825260209182902060079091020160058101849055600681018054600160ff199091161790558054604051858152919350917f88a84ea6dd274b386afd27dbbe11b6192b25017f5e60bb8c4053dfddb45c294d910160405180910390a2505050565b60006110216118f9565b905090565b61102e61189f565b60ca5482106110505760405163068f3e9360e01b815260040160405180910390fd5b8060ca8381548110611064576110646124cc565b9060005260206000209060070201600401819055505050565b60ca54811061109f5760405163068f3e9360e01b815260040160405180910390fd5b60ca81815481106110b2576110b26124cc565b600091825260209091206006600790920201015460ff166110e657604051637c9b648360e11b815260040160405180910390fd5b33600090815260cb60209081526040808320848452909152902060020154610100900460ff161561112a576040516363988ae560e01b815260040160405180910390fd5b60006111363383611ada565b90506000811161115957604051633890399760e11b815260040160405180910390fd5b60c9546040516340c10f1960e01b8152336004820152602481018390526001600160a01b03909116906340c10f1990604401600060405180830381600087803b1580156111a557600080fd5b505af11580156111b9573d6000803e3d6000fd5b505033600081815260cb602090815260408083208884529091529020600201805461ff001916610100179055610ba29250905082611ba2565b606060ca805480602002602001604051908101604052809291908181526020016000905b82821015610cb557838290600052602060002090600702016040518060e0016040529081600082015481526020016001820154815260200160028201805461125d90612492565b80601f016020809104026020016040519081016040528092919081815260200182805461128990612492565b80156112d65780601f106112ab576101008083540402835291602001916112d6565b820191906000526020600020905b8154815290600101906020018083116112b957829003601f168201915b50505091835250506003820154602080830191909152600483015460408301526005830154606083015260069092015460ff1615156080909101529082526001929092019101611216565b600054610100900460ff16158080156113415750600054600160ff909116105b8061135b5750303b15801561135b575060005460ff166001145b6113be5760405162461bcd60e51b815260206004820152602e60248201527f496e697469616c697a61626c653a20636f6e747261637420697320616c72656160448201526d191e481a5b9a5d1a585b1a5e995960921b6064820152608401610a38565b6000805460ff1916600117905580156113e1576000805461ff0019166101001790555b6113e9611cd1565b6113f1611d00565b60c980546001600160a01b0319166001600160a01b0384161790558015610ba2576000805461ff0019169055604051600181527f7f26b83ff96e1f2b6a682f133852f6798a09c465da95921460cefb38474024989060200160405180910390a15050565b61145d61189f565b6000841161147e576040516397e42ff160e01b815260040160405180910390fd5b60008351116114a0576040516321837f8d60e11b815260040160405180910390fd5b600082116114c1576040516324124cbd60e21b815260040160405180910390fd5b6040805160e08101825260ca8054808352602083018881529383018781526060840187905260808401869052600060a0850181905260c0850181905260018301845592909252825160079091027f42d72674974f694b5f5159593243114d38a5c39c89d6b62fee061ff523240ee1810191825593517f42d72674974f694b5f5159593243114d38a5c39c89d6b62fee061ff523240ee28501559051919283927f42d72674974f694b5f5159593243114d38a5c39c89d6b62fee061ff523240ee39091019061158f9082612603565b50606082015181600301556080820151816004015560a0820151816005015560c08201518160060160006101000a81548160ff021916908315150217905550505080600001517f2c9abf2661fb03c138ccec3cfd5f61aa163de60c174367b32f8e37c77026fac0826020015183604001518460600151856080015160405161161a94939291906126c3565b60405180910390a25050505050565b60ca54600090821061163d57506000610e36565b60ca8281548110611650576116506124cc565b600091825260209091206006600790920201015460ff1661167357506000610e36565b600061167f8484611ada565b949350505050565b61168f61189f565b6001600160a01b0381166116f45760405162461bcd60e51b815260206004820152602660248201527f4f776e61626c653a206e6577206f776e657220697320746865207a65726f206160448201526564647265737360d01b6064820152608401610a38565b610abe81611a88565b61173f6040518060e001604052806000815260200160008152602001606081526020016000815260200160008152602001600081526020016000151581525090565b60ca548210611799576040518060e001604052806000815260200160008152602001604051806020016040528060008152508152602001600081526020016000815260200160008152602001600015158152509050919050565b60ca82815481106117ac576117ac6124cc565b90600052602060002090600702016040518060e001604052908160008201548152602001600182015481526020016002820180546117e990612492565b80601f016020809104026020016040519081016040528092919081815260200182805461181590612492565b80156118625780601f1061183757610100808354040283529160200191611862565b820191906000526020600020905b81548152906001019060200180831161184557829003601f168201915b505050918352505060038201546020820152600482015460408201526005820154606082015260069091015460ff16151560809091015292915050565b6033546001600160a01b03163314610d305760405162461bcd60e51b815260206004820181905260248201527f4f776e61626c653a2063616c6c6572206973206e6f7420746865206f776e65726044820152606401610a38565b60008051602061280f833981519152546001600160a01b031690565b610abe61189f565b7f4910fdfa16fed3260ed0e7147f7cc6da11a60208b5b9406d12a635614ffd91435460ff161561195057610d1983611d27565b826001600160a01b03166352d1902d6040518163ffffffff1660e01b8152600401602060405180830381865afa9250505080156119aa575060408051601f3d908101601f191682019092526119a7918101906124e2565b60015b611a0d5760405162461bcd60e51b815260206004820152602e60248201527f45524331393637557067726164653a206e657720696d706c656d656e7461746960448201526d6f6e206973206e6f74205555505360901b6064820152608401610a38565b60008051602061280f8339815191528114611a7c5760405162461bcd60e51b815260206004820152602960248201527f45524331393637557067726164653a20756e737570706f727465642070726f786044820152681a58589b195555525160ba1b6064820152608401610a38565b50610d19838383611dc3565b603380546001600160a01b038381166001600160a01b0319831681179093556040519116919082907f8be0079c531659141344cd1fd0a4f28419497f9722a3daafe3b4186f6b6457e090600090a35050565b60008060ca8381548110611af057611af06124cc565b60009182526020808320600792909202909101600301546001600160a01b038716835260cb82526040808420878552909252912080546001909101549192509081611b415760009350505050610e36565b60ca8581548110611b5457611b546124cc565b9060005260206000209060070201600501548114611b785760009350505050610e36565b6064611b848484612705565b611b8e919061271c565b611b98908361273e565b9695505050505050565b60005b6003811015610d19578160cd8260038110611bc257611bc26124cc565b60020201600101541015611cbf5760025b81811115611c535760cd611be8600183612751565b60038110611bf857611bf86124cc565b6002020160cd8260038110611c0f57611c0f6124cc565b82546002919091029190910180546001600160a01b0319166001600160a01b0390921691909117815560019182015491015580611c4b81612764565b915050611bd3565b506040518060400160405280846001600160a01b031681526020018381525060cd8260038110611c8557611c856124cc565b82516002919091029190910180546001600160a01b0319166001600160a01b03909216919091178155602090910151600190910155505050565b80611cc98161277b565b915050611ba5565b600054610100900460ff16611cf85760405162461bcd60e51b8152600401610a3890612794565b610d30611dee565b600054610100900460ff16610d305760405162461bcd60e51b8152600401610a3890612794565b6001600160a01b0381163b611d945760405162461bcd60e51b815260206004820152602d60248201527f455243313936373a206e657720696d706c656d656e746174696f6e206973206e60448201526c1bdd08184818dbdb9d1c9858dd609a1b6064820152608401610a38565b60008051602061280f83398151915280546001600160a01b0319166001600160a01b0392909216919091179055565b611dcc83611e1e565b600082511180611dd95750805b15610d1957611de88383611e5e565b50505050565b600054610100900460ff16611e155760405162461bcd60e51b8152600401610a3890612794565b610d3033611a88565b611e2781611d27565b6040516001600160a01b038216907fbc7cd75a20ee27fd9adebab32041f755214dbc6bffa90cc0225b39da2e5c2d3b90600090a250565b60606001600160a01b0383163b611ec65760405162461bcd60e51b815260206004820152602660248201527f416464726573733a2064656c65676174652063616c6c20746f206e6f6e2d636f6044820152651b9d1c9858dd60d21b6064820152608401610a38565b600080846001600160a01b031684604051611ee191906127df565b600060405180830381855af49150503d8060008114611f1c576040519150601f19603f3d011682016040523d82523d6000602084013e611f21565b606091505b5091509150611f49828260405180606001604052806027815260200161282f60279139611f52565b95945050505050565b60608315611f61575081611f6b565b611f6b8383611f72565b9392505050565b815115611f825781518083602001fd5b8060405162461bcd60e51b8152600401610a3891906127fb565b60405180606001604052806003905b6040805180820190915260008082526020820152815260200190600190039081611fab5790505090565b600060208284031215611fe757600080fd5b5035919050565b60005b83811015612009578181015183820152602001611ff1565b50506000910152565b6000815180845261202a816020860160208601611fee565b601f01601f19169290920160200192915050565b87815286602082015260e06040820152600061205d60e0830188612012565b90508560608301528460808301528360a083015282151560c083015298975050505050505050565b6000806040838503121561209857600080fd5b50508035926020909101359150565b80356001600160a01b03811681146120be57600080fd5b919050565b6000602082840312156120d557600080fd5b611f6b826120a7565b6000806000606084860312156120f357600080fd5b505081359360208301359350604090920135919050565b6000806040838503121561211d57600080fd5b612126836120a7565b946020939093013593505050565b634e487b7160e01b600052604160045260246000fd5b600067ffffffffffffffff8084111561216557612165612134565b604051601f8501601f19908116603f0116810190828211818310171561218d5761218d612134565b816040528093508581528686860111156121a657600080fd5b858560208301376000602087830101525050509392505050565b600080604083850312156121d357600080fd5b6121dc836120a7565b9150602083013567ffffffffffffffff8111156121f857600080fd5b8301601f8101851361220957600080fd5b6122188582356020840161214a565b9150509250929050565b60c08101818360005b600381101561225f57815180516001600160a01b03168452602090810151818501526040909301929091019060010161222b565b50505092915050565b600082601f83011261227957600080fd5b611f6b8383356020850161214a565b6000806040838503121561229b57600080fd5b82359150602083013567ffffffffffffffff8111156122b957600080fd5b61221885828601612268565b815181526020808301519082015260408083015115159082015260608083015115159082015260808101610e36565b6020808252825182820181905260009190848201906040850190845b8181101561235b5761234883855180518252602081015160208301526040810151151560408301526060810151151560608301525050565b9284019260809290920191600101612310565b50909695505050505050565b80518252602081015160208301526000604082015160e0604085015261239060e0850182612012565b9050606083015160608501526080830151608085015260a083015160a085015260c0830151151560c08501528091505092915050565b6000602080830181845280855180835260408601915060408160051b870101925083870160005b8281101561241b57603f19888603018452612409858351612367565b945092850192908501906001016123ed565b5092979650505050505050565b6000806000806080858703121561243e57600080fd5b84359350602085013567ffffffffffffffff81111561245c57600080fd5b61246887828801612268565b949794965050505060408301359260600135919050565b602081526000611f6b6020830184612367565b600181811c908216806124a657607f821691505b6020821081036124c657634e487b7160e01b600052602260045260246000fd5b50919050565b634e487b7160e01b600052603260045260246000fd5b6000602082840312156124f457600080fd5b5051919050565b60006020828403121561250d57600080fd5b81518015158114611f6b57600080fd5b6020808252602c908201527f46756e6374696f6e206d7573742062652063616c6c6564207468726f7567682060408201526b19195b1959d85d1958d85b1b60a21b606082015260800190565b6020808252602c908201527f46756e6374696f6e206d7573742062652063616c6c6564207468726f7567682060408201526b6163746976652070726f787960a01b606082015260800190565b601f821115610d1957600081815260208120601f850160051c810160208610156125dc5750805b601f850160051c820191505b818110156125fb578281556001016125e8565b505050505050565b815167ffffffffffffffff81111561261d5761261d612134565b6126318161262b8454612492565b846125b5565b602080601f831160018114612666576000841561264e5750858301515b600019600386901b1c1916600185901b1785556125fb565b600085815260208120601f198616915b8281101561269557888601518255948401946001909101908401612676565b50858210156126b35787850151600019600388901b60f8161c191681555b5050505050600190811b01905550565b8481526080602082015260006126dc6080830186612012565b6040830194909452506060015292915050565b634e487b7160e01b600052601160045260246000fd5b8082028115828204841417610e3657610e366126ef565b60008261273957634e487b7160e01b600052601260045260246000fd5b500490565b80820180821115610e3657610e366126ef565b81810381811115610e3657610e366126ef565b600081612773576127736126ef565b506000190190565b60006001820161278d5761278d6126ef565b5060010190565b6020808252602b908201527f496e697469616c697a61626c653a20636f6e7472616374206973206e6f74206960408201526a6e697469616c697a696e6760a81b606082015260800190565b600082516127f1818460208701611fee565b9190910192915050565b602081526000611f6b602083018461201256fe360894a13ba1a3210667c828492db98dca3e2076cc3735a920a3ca505d382bbc416464726573733a206c6f772d6c6576656c2064656c65676174652063616c6c206661696c6564a2646970667358221220243fa34f875243b7a8da8f5b60523f64147e94501456cd2782e20b5ba129b02b64736f6c63430008150033",
    "linkReferences": {}
  },
  "methodIdentifiers": {
    "claimReward(uint256)": "ae169a50",
    "createPrediction(uint256,string,uint256,uint256)": "d278d5f4",
    "getAllPredictions()": "bc1c7285",
    "getImplementation()": "aaf10f42",
    "getPrediction(uint256)": "fe83bece",
    "getRewardAmount(address,uint256)": "da4e8556",
    "getTop3Info()": "538a5da7",
    "getUserInfo(address,uint256)": "76e8424f",
    "getUserInfoOfPrediction(uint256)": "93ca5fd4",
    "initialize(address)": "c4d66de8",
    "owner()": "8da5cb5b",
    "predict(uint256,uint256,uint256)": "1651b058",
    "predictions(uint256)": "004fbbb0",
    "proxiableUUID()": "52d1902d",
    "renounceOwnership()": "715018a6",
    "setChoicesLength(uint256,uint256)": "0e6b7cf1",
    "setEndTime(uint256,uint256)": "abfbac4b",
    "setPredictionURI(uint256,string)": "5fb2f6bb",
    "setToken(address)": "144fa6d7",
    "settle(uint256,uint256)": "9a9c29f6",
    "token()": "fc0c546a",
    "top3Users(uint256)": "42e6fe58",
    "transferOwnership(address)": "f2fde38b",
    "upgradeTo(address)": "3659cfe6",
    "upgradeToAndCall(address,bytes)": "4f1ef286",
    "userInfo(address,uint256)": "21ce919d",
    "userInfos(uint256,uint256)": "73a406e2"
  },
  "id": 0
}