{
  "_format": "hh-sol-artifact-1",
  "contractName": "MaidsMarketPlace",
  "sourceName": "contracts/MaidsMarketPlace.sol",
  "abi": [
    {
      "inputs": [],
      "stateMutability": "nonpayable",
      "type": "constructor"
    },
    {
      "inputs": [],
      "name": "InvalidArguments",
      "type": "error"
    },
    {
      "inputs": [],
      "name": "NotOperator",
      "type": "error"
    },
    {
      "inputs": [],
      "name": "NotSaleTime",
      "type": "error"
    },
    {
      "inputs": [],
      "name": "OverLimitPerWallet",
      "type": "error"
    },
    {
      "inputs": [],
      "name": "OverSupplyError",
      "type": "error"
    },
    {
      "inputs": [],
      "name": "insufficientAllowanceError",
      "type": "error"
    },
    {
      "anonymous": false,
      "inputs": [
        {
          "indexed": false,
          "internalType": "address",
          "name": "previousAdmin",
          "type": "address"
        },
        {
          "indexed": false,
          "internalType": "address",
          "name": "newAdmin",
          "type": "address"
        }
      ],
      "name": "AdminChanged",
      "type": "event"
    },
    {
      "anonymous": false,
      "inputs": [
        {
          "indexed": true,
          "internalType": "address",
          "name": "beacon",
          "type": "address"
        }
      ],
      "name": "BeaconUpgraded",
      "type": "event"
    },
    {
      "anonymous": false,
      "inputs": [
        {
          "indexed": true,
          "internalType": "address",
          "name": "buyer",
          "type": "address"
        },
        {
          "indexed": true,
          "internalType": "uint256",
          "name": "itemId",
          "type": "uint256"
        },
        {
          "indexed": true,
          "internalType": "uint256",
          "name": "amount",
          "type": "uint256"
        }
      ],
      "name": "BuyItem",
      "type": "event"
    },
    {
      "anonymous": false,
      "inputs": [
        {
          "indexed": false,
          "internalType": "uint8",
          "name": "version",
          "type": "uint8"
        }
      ],
      "name": "Initialized",
      "type": "event"
    },
    {
      "anonymous": false,
      "inputs": [
        {
          "indexed": true,
          "internalType": "address",
          "name": "previousOwner",
          "type": "address"
        },
        {
          "indexed": true,
          "internalType": "address",
          "name": "newOwner",
          "type": "address"
        }
      ],
      "name": "OwnershipTransferred",
      "type": "event"
    },
    {
      "anonymous": false,
      "inputs": [
        {
          "indexed": false,
          "internalType": "address",
          "name": "account",
          "type": "address"
        }
      ],
      "name": "Paused",
      "type": "event"
    },
    {
      "anonymous": false,
      "inputs": [
        {
          "indexed": false,
          "internalType": "address",
          "name": "account",
          "type": "address"
        }
      ],
      "name": "Unpaused",
      "type": "event"
    },
    {
      "anonymous": false,
      "inputs": [
        {
          "indexed": true,
          "internalType": "address",
          "name": "implementation",
          "type": "address"
        }
      ],
      "name": "Upgraded",
      "type": "event"
    },
    {
      "inputs": [
        {
          "internalType": "address",
          "name": "addr",
          "type": "address"
        }
      ],
      "name": "addOperator",
      "outputs": [],
      "stateMutability": "nonpayable",
      "type": "function"
    },
    {
      "inputs": [
        {
          "internalType": "address[]",
          "name": "to",
          "type": "address[]"
        },
        {
          "internalType": "uint256",
          "name": "itemId",
          "type": "uint256"
        },
        {
          "internalType": "uint256[]",
          "name": "amount",
          "type": "uint256[]"
        }
      ],
      "name": "airdrop",
      "outputs": [],
      "stateMutability": "nonpayable",
      "type": "function"
    },
    {
      "inputs": [
        {
          "internalType": "address",
          "name": "to",
          "type": "address"
        },
        {
          "internalType": "uint256",
          "name": "itemId",
          "type": "uint256"
        },
        {
          "internalType": "uint256",
          "name": "amount",
          "type": "uint256"
        }
      ],
      "name": "buyItem",
      "outputs": [],
      "stateMutability": "nonpayable",
      "type": "function"
    },
    {
      "inputs": [
        {
          "components": [
            {
              "internalType": "uint256",
              "name": "price",
              "type": "uint256"
            },
            {
              "internalType": "uint256",
              "name": "supply",
              "type": "uint256"
            },
            {
              "internalType": "string",
              "name": "tokenURI",
              "type": "string"
            },
            {
              "internalType": "uint256",
              "name": "startTime",
              "type": "uint256"
            },
            {
              "internalType": "uint256",
              "name": "limitPerWallet",
              "type": "uint256"
            }
          ],
          "internalType": "struct MaidsMarketPlace.MarketItem",
          "name": "marketItem",
          "type": "tuple"
        }
      ],
      "name": "createMarketItem",
      "outputs": [],
      "stateMutability": "nonpayable",
      "type": "function"
    },
    {
      "inputs": [],
      "name": "fetchMarketItems",
      "outputs": [
        {
          "components": [
            {
              "internalType": "uint256",
              "name": "price",
              "type": "uint256"
            },
            {
              "internalType": "uint256",
              "name": "supply",
              "type": "uint256"
            },
            {
              "internalType": "string",
              "name": "tokenURI",
              "type": "string"
            },
            {
              "internalType": "uint256",
              "name": "startTime",
              "type": "uint256"
            },
            {
              "internalType": "uint256",
              "name": "limitPerWallet",
              "type": "uint256"
            }
          ],
          "internalType": "struct MaidsMarketPlace.MarketItem[]",
          "name": "",
          "type": "tuple[]"
        }
      ],
      "stateMutability": "view",
      "type": "function"
    },
    {
      "inputs": [],
      "name": "getImplementation",
      "outputs": [
        {
          "internalType": "address",
          "name": "",
          "type": "address"
        }
      ],
      "stateMutability": "view",
      "type": "function"
    },
    {
      "inputs": [
        {
          "internalType": "address",
          "name": "_token",
          "type": "address"
        },
        {
          "internalType": "address",
          "name": "_nft",
          "type": "address"
        }
      ],
      "name": "initialize",
      "outputs": [],
      "stateMutability": "nonpayable",
      "type": "function"
    },
    {
      "inputs": [],
      "name": "nft",
      "outputs": [
        {
          "internalType": "contract IMaidsItem1155",
          "name": "",
          "type": "address"
        }
      ],
      "stateMutability": "view",
      "type": "function"
    },
    {
      "inputs": [],
      "name": "owner",
      "outputs": [
        {
          "internalType": "address",
          "name": "",
          "type": "address"
        }
      ],
      "stateMutability": "view",
      "type": "function"
    },
    {
      "inputs": [],
      "name": "pause",
      "outputs": [],
      "stateMutability": "nonpayable",
      "type": "function"
    },
    {
      "inputs": [],
      "name": "paused",
      "outputs": [
        {
          "internalType": "bool",
          "name": "",
          "type": "bool"
        }
      ],
      "stateMutability": "view",
      "type": "function"
    },
    {
      "inputs": [],
      "name": "proxiableUUID",
      "outputs": [
        {
          "internalType": "bytes32",
          "name": "",
          "type": "bytes32"
        }
      ],
      "stateMutability": "view",
      "type": "function"
    },
    {
      "inputs": [
        {
          "internalType": "address",
          "name": "addr",
          "type": "address"
        }
      ],
      "name": "removeOperator",
      "outputs": [],
      "stateMutability": "nonpayable",
      "type": "function"
    },
    {
      "inputs": [],
      "name": "renounceOwnership",
      "outputs": [],
      "stateMutability": "nonpayable",
      "type": "function"
    },
    {
      "inputs": [
        {
          "internalType": "address",
          "name": "newNFT",
          "type": "address"
        }
      ],
      "name": "setNFT",
      "outputs": [],
      "stateMutability": "nonpayable",
      "type": "function"
    },
    {
      "inputs": [
        {
          "internalType": "uint256",
          "name": "itemId",
          "type": "uint256"
        },
        {
          "internalType": "uint256",
          "name": "newPrice",
          "type": "uint256"
        }
      ],
      "name": "setPrice",
      "outputs": [],
      "stateMutability": "nonpayable",
      "type": "function"
    },
    {
      "inputs": [
        {
          "internalType": "uint256",
          "name": "itemId",
          "type": "uint256"
        },
        {
          "internalType": "uint256",
          "name": "newSupply",
          "type": "uint256"
        }
      ],
      "name": "setSupply",
      "outputs": [],
      "stateMutability": "nonpayable",
      "type": "function"
    },
    {
      "inputs": [
        {
          "internalType": "address",
          "name": "newToken",
          "type": "address"
        }
      ],
      "name": "setToken",
      "outputs": [],
      "stateMutability": "nonpayable",
      "type": "function"
    },
    {
      "inputs": [
        {
          "internalType": "uint256",
          "name": "itemId",
          "type": "uint256"
        },
        {
          "internalType": "string",
          "name": "newTokenURI",
          "type": "string"
        }
      ],
      "name": "setTokenURI",
      "outputs": [],
      "stateMutability": "nonpayable",
      "type": "function"
    },
    {
      "inputs": [],
      "name": "token",
      "outputs": [
        {
          "internalType": "contract IMaidsToken",
          "name": "",
          "type": "address"
        }
      ],
      "stateMutability": "view",
      "type": "function"
    },
    {
      "inputs": [
        {
          "internalType": "address",
          "name": "newOwner",
          "type": "address"
        }
      ],
      "name": "transferOwnership",
      "outputs": [],
      "stateMutability": "nonpayable",
      "type": "function"
    },
    {
      "inputs": [],
      "name": "unpause",
      "outputs": [],
      "stateMutability": "nonpayable",
      "type": "function"
    },
    {
      "inputs": [
        {
          "internalType": "address",
          "name": "newImplementation",
          "type": "address"
        }
      ],
      "name": "upgradeTo",
      "outputs": [],
      "stateMutability": "nonpayable",
      "type": "function"
    },
    {
      "inputs": [
        {
          "internalType": "address",
          "name": "newImplementation",
          "type": "address"
        },
        {
          "internalType": "bytes",
          "name": "data",
          "type": "bytes"
        }
      ],
      "name": "upgradeToAndCall",
      "outputs": [],
      "stateMutability": "payable",
      "type": "function"
    }
  ],
  "bytecode": "0x60a06040523060805234801561001457600080fd5b5061001d610022565b6100e2565b600054610100900460ff161561008e5760405162461bcd60e51b815260206004820152602760248201527f496e697469616c697a61626c653a20636f6e747261637420697320696e697469604482015266616c697a696e6760c81b606482015260840160405180910390fd5b60005460ff90811610156100e0576000805460ff191660ff9081179091556040519081527f7f26b83ff96e1f2b6a682f133852f6798a09c465da95921460cefb38474024989060200160405180910390a15b565b60805161218c6200011a60003960008181610876015281816108bf01528181610aeb01528181610b2b0152610bbe015261218c6000f3fe60806040526004361061018b5760003560e01c80637bb80973116100d6578063f2fde38b1161007f578063f7d9757711610059578063f7d9757714610420578063fc0c546a14610440578063fc784d491461046057600080fd5b8063f2fde38b146103c0578063f56e9c66146103e0578063f6b45c461461040057600080fd5b80639870d7fe116100b05780639870d7fe1461036b578063aaf10f421461038b578063ac8a584a146103a057600080fd5b80637bb80973146103185780638456cb59146103385780638da5cb5b1461034d57600080fd5b806347ccca021161013857806352d1902d1161011257806352d1902d146102bd5780635c975abb146102e0578063715018a61461030357600080fd5b806347ccca0214610252578063485cc9551461028a5780634f1ef286146102aa57600080fd5b806326b41d7c1161016957806326b41d7c146101fd5780633659cfe61461021d5780633f4ba83a1461023d57600080fd5b80630f08efe014610190578063144fa6d7146101bb578063162094c4146101dd575b600080fd5b34801561019c57600080fd5b506101a5610480565b6040516101b29190611961565b60405180910390f35b3480156101c757600080fd5b506101db6101d6366004611a12565b61063c565b005b3480156101e957600080fd5b506101db6101f8366004611ab9565b61068e565b34801561020957600080fd5b506101db610218366004611b60565b61074c565b34801561022957600080fd5b506101db610238366004611a12565b61086c565b34801561024957600080fd5b506101db610954565b34801561025e57600080fd5b5060fc54610272906001600160a01b031681565b6040516001600160a01b0390911681526020016101b2565b34801561029657600080fd5b506101db6102a5366004611bda565b610996565b6101db6102b8366004611c0d565b610ae1565b3480156102c957600080fd5b506102d2610bb1565b6040519081526020016101b2565b3480156102ec57600080fd5b5060335460ff1660405190151581526020016101b2565b34801561030f57600080fd5b506101db610c64565b34801561032457600080fd5b506101db610333366004611c45565b610c76565b34801561034457600080fd5b506101db610d1a565b34801561035957600080fd5b506065546001600160a01b0316610272565b34801561037757600080fd5b506101db610386366004611a12565b610d5a565b34801561039757600080fd5b50610272610d86565b3480156103ac57600080fd5b506101db6103bb366004611a12565b610dac565b3480156103cc57600080fd5b506101db6103db366004611a12565b610dd5565b3480156103ec57600080fd5b506101db6103fb366004611a12565b610e4b565b34801561040c57600080fd5b506101db61041b366004611c80565b610e9d565b34801561042c57600080fd5b506101db61043b366004611cb3565b6111d8565b34801561044c57600080fd5b5060fb54610272906001600160a01b031681565b34801561046c57600080fd5b506101db61047b366004611cb3565b61121a565b6060600061048d60ff5490565b90506000808267ffffffffffffffff8111156104ab576104ab611a2d565b60405190808252806020026020018201604052801561050e57816020015b6104fb6040518060a0016040528060008152602001600081526020016060815260200160008152602001600081525090565b8152602001906001900390816104c95790505b50905060005b8381101561063457600081815260fd60209081526040808320815160a08101835281548152600182015493810193909352600281018054869594938401919061055c90611cd5565b80601f016020809104026020016040519081016040528092919081815260200182805461058890611cd5565b80156105d55780601f106105aa576101008083540402835291602001916105d5565b820191906000526020600020905b8154815290600101906020018083116105b857829003601f168201915b505050505081526020016003820154815260200160048201548152505090508084868151811061060757610607611d0f565b602090810291909101015261061d600186611d3b565b94505050808061062c90611d53565b915050610514565b509392505050565b33600090815260fe602052604090205460ff1661066c57604051631f0853c160e21b815260040160405180910390fd5b60fb80546001600160a01b0319166001600160a01b0392909216919091179055565b33600090815260fe602052604090205460ff166106be57604051631f0853c160e21b815260040160405180910390fd5b600082815260fd6020908152604090912082516106e392600290920191840190611870565b5060fc54604051634312207160e11b81526001600160a01b039091169063862440e2906107169085908590600401611d6c565b600060405180830381600087803b15801561073057600080fd5b505af1158015610744573d6000803e3d6000fd5b505050505050565b33600090815260fe602052604090205460ff1661077c57604051631f0853c160e21b815260040160405180910390fd5b83811461079c576040516317dbc4cb60e21b815260040160405180910390fd5b60005b848110156107445760fc546001600160a01b031663156e29f68787848181106107ca576107ca611d0f565b90506020020160208101906107df9190611a12565b868686868181106107f2576107f2611d0f565b6040516001600160e01b031960e088901b1681526001600160a01b039095166004860152602485019390935250602090910201356044820152606401600060405180830381600087803b15801561084857600080fd5b505af115801561085c573d6000803e3d6000fd5b50506001909201915061079f9050565b6001600160a01b037f00000000000000000000000000000000000000000000000000000000000000001630036108bd5760405162461bcd60e51b81526004016108b490611d8d565b60405180910390fd5b7f00000000000000000000000000000000000000000000000000000000000000006001600160a01b0316610906600080516020612110833981519152546001600160a01b031690565b6001600160a01b03161461092c5760405162461bcd60e51b81526004016108b490611dd9565b6109358161125f565b6040805160008082526020820190925261095191839190611267565b50565b33600090815260fe602052604090205460ff1661098457604051631f0853c160e21b815260040160405180910390fd5b61098c6113d2565b610994611424565b565b600054610100900460ff16158080156109b65750600054600160ff909116105b806109d05750303b1580156109d0575060005460ff166001145b610a335760405162461bcd60e51b815260206004820152602e60248201527f496e697469616c697a61626c653a20636f6e747261637420697320616c72656160448201526d191e481a5b9a5d1a585b1a5e995960921b60648201526084016108b4565b6000805460ff191660011790558015610a56576000805461ff0019166101001790555b610a5e611476565b610a666114a5565b60fb80546001600160a01b038086166001600160a01b03199283161790925560fc8054928516929091169190911790558015610adc576000805461ff0019169055604051600181527f7f26b83ff96e1f2b6a682f133852f6798a09c465da95921460cefb38474024989060200160405180910390a15b505050565b6001600160a01b037f0000000000000000000000000000000000000000000000000000000000000000163003610b295760405162461bcd60e51b81526004016108b490611d8d565b7f00000000000000000000000000000000000000000000000000000000000000006001600160a01b0316610b72600080516020612110833981519152546001600160a01b031690565b6001600160a01b031614610b985760405162461bcd60e51b81526004016108b490611dd9565b610ba18261125f565b610bad82826001611267565b5050565b6000306001600160a01b037f00000000000000000000000000000000000000000000000000000000000000001614610c515760405162461bcd60e51b815260206004820152603860248201527f555550535570677261646561626c653a206d757374206e6f742062652063616c60448201527f6c6564207468726f7567682064656c656761746563616c6c000000000000000060648201526084016108b4565b5060008051602061211083398151915290565b610c6c6114cc565b6109946000611526565b33600090815260fe602052604090205460ff16610ca657604051631f0853c160e21b815260040160405180910390fd5b6000610cb160ff5490565b9050610cc160ff80546001019055565b600081815260fd602052604090208290610cdb8282611f73565b505060fc546001600160a01b031663862440e282610cfc6040860186611e25565b6040518463ffffffff1660e01b815260040161071693929190611fee565b33600090815260fe602052604090205460ff16610d4a57604051631f0853c160e21b815260040160405180910390fd5b610d52611578565b6109946115be565b610d626114cc565b6001600160a01b0316600090815260fe60205260409020805460ff19166001179055565b6000610da7600080516020612110833981519152546001600160a01b031690565b905090565b610db46114cc565b6001600160a01b0316600090815260fe60205260409020805460ff19169055565b610ddd6114cc565b6001600160a01b038116610e425760405162461bcd60e51b815260206004820152602660248201527f4f776e61626c653a206e6577206f776e657220697320746865207a65726f206160448201526564647265737360d01b60648201526084016108b4565b61095181611526565b33600090815260fe602052604090205460ff16610e7b57604051631f0853c160e21b815260040160405180910390fd5b60fc80546001600160a01b0319166001600160a01b0392909216919091179055565b610ea5611578565b600082815260fd602052604090206003015442811115610ed85760405163d5a6b05f60e01b815260040160405180910390fd5b60fc54604051627eeac760e11b81526001600160a01b03868116600483015260248201869052600092169062fdd58e90604401602060405180830381865afa158015610f28573d6000803e3d6000fd5b505050506040513d601f19601f82011682018060405250810190610f4c9190612024565b600085815260fd602052604090206004015490915080610f6c8584611d3b565b1115610f8b5760405163a53a208360e01b815260040160405180910390fd5b600085815260fd602052604090206001015484811015610fbe57604051630d9b32e760e11b815260040160405180910390fd5b600086815260fd602052604081206001018054879290610fdf90849061203d565b9091555050600086815260fd60205260408082205460fb549151636eb1769f60e11b81523360048201523060248201529092916001600160a01b03169063dd62ed3e90604401602060405180830381865afa158015611042573d6000803e3d6000fd5b505050506040513d601f19601f820116820180604052508101906110669190612024565b90506110728783612054565b8110156110925760405163586d6f7b60e01b815260040160405180910390fd5b60fb546001600160a01b03166323b872dd33306110af8b87612054565b6040516001600160e01b031960e086901b1681526001600160a01b03938416600482015292909116602483015260448201526064016020604051808303816000875af1158015611103573d6000803e3d6000fd5b505050506040513d601f19601f820116820180604052508101906111279190612073565b5060fc54604051630ab714fb60e11b81526001600160a01b038b81166004830152602482018b9052604482018a90529091169063156e29f690606401600060405180830381600087803b15801561117d57600080fd5b505af1158015611191573d6000803e3d6000fd5b5050505086888a6001600160a01b03167fb30f5ca9d541fe04588c910f69c1e7c2456b7822e7073df9b59908509cbc4f4d60405160405180910390a4505050505050505050565b33600090815260fe602052604090205460ff1661120857604051631f0853c160e21b815260040160405180910390fd5b600091825260fd602052604090912055565b33600090815260fe602052604090205460ff1661124a57604051631f0853c160e21b815260040160405180910390fd5b600091825260fd602052604090912060010155565b6109516114cc565b7f4910fdfa16fed3260ed0e7147f7cc6da11a60208b5b9406d12a635614ffd91435460ff161561129a57610adc836115fb565b826001600160a01b03166352d1902d6040518163ffffffff1660e01b8152600401602060405180830381865afa9250505080156112f4575060408051601f3d908101601f191682019092526112f191810190612024565b60015b6113575760405162461bcd60e51b815260206004820152602e60248201527f45524331393637557067726164653a206e657720696d706c656d656e7461746960448201526d6f6e206973206e6f74205555505360901b60648201526084016108b4565b60008051602061211083398151915281146113c65760405162461bcd60e51b815260206004820152602960248201527f45524331393637557067726164653a20756e737570706f727465642070726f786044820152681a58589b195555525160ba1b60648201526084016108b4565b50610adc838383611697565b60335460ff166109945760405162461bcd60e51b815260206004820152601460248201527f5061757361626c653a206e6f742070617573656400000000000000000000000060448201526064016108b4565b61142c6113d2565b6033805460ff191690557f5db9ee0a495bf2e6ff9c91a7834c1ba4fdd244a5e8aa4e537bd38aeae4b073aa335b6040516001600160a01b03909116815260200160405180910390a1565b600054610100900460ff1661149d5760405162461bcd60e51b81526004016108b490612095565b6109946116c2565b600054610100900460ff166109945760405162461bcd60e51b81526004016108b490612095565b6065546001600160a01b031633146109945760405162461bcd60e51b815260206004820181905260248201527f4f776e61626c653a2063616c6c6572206973206e6f7420746865206f776e657260448201526064016108b4565b606580546001600160a01b038381166001600160a01b0319831681179093556040519116919082907f8be0079c531659141344cd1fd0a4f28419497f9722a3daafe3b4186f6b6457e090600090a35050565b60335460ff16156109945760405162461bcd60e51b815260206004820152601060248201526f14185d5cd8589b194e881c185d5cd95960821b60448201526064016108b4565b6115c6611578565b6033805460ff191660011790557f62e78cea01bee320cd4e420270b5ea74000d11b0c9f74754ebdbfc544b05a2586114593390565b6001600160a01b0381163b6116685760405162461bcd60e51b815260206004820152602d60248201527f455243313936373a206e657720696d706c656d656e746174696f6e206973206e60448201526c1bdd08184818dbdb9d1c9858dd609a1b60648201526084016108b4565b60008051602061211083398151915280546001600160a01b0319166001600160a01b0392909216919091179055565b6116a0836116f2565b6000825111806116ad5750805b15610adc576116bc8383611732565b50505050565b600054610100900460ff166116e95760405162461bcd60e51b81526004016108b490612095565b61099433611526565b6116fb816115fb565b6040516001600160a01b038216907fbc7cd75a20ee27fd9adebab32041f755214dbc6bffa90cc0225b39da2e5c2d3b90600090a250565b60606001600160a01b0383163b61179a5760405162461bcd60e51b815260206004820152602660248201527f416464726573733a2064656c65676174652063616c6c20746f206e6f6e2d636f6044820152651b9d1c9858dd60d21b60648201526084016108b4565b600080846001600160a01b0316846040516117b591906120e0565b600060405180830381855af49150503d80600081146117f0576040519150601f19603f3d011682016040523d82523d6000602084013e6117f5565b606091505b509150915061181d828260405180606001604052806027815260200161213060279139611826565b95945050505050565b6060831561183557508161183f565b61183f8383611846565b9392505050565b8151156118565781518083602001fd5b8060405162461bcd60e51b81526004016108b491906120fc565b82805461187c90611cd5565b90600052602060002090601f01602090048101928261189e57600085556118e4565b82601f106118b757805160ff19168380011785556118e4565b828001600101855582156118e4579182015b828111156118e45782518255916020019190600101906118c9565b506118f09291506118f4565b5090565b5b808211156118f057600081556001016118f5565b60005b8381101561192457818101518382015260200161190c565b838111156116bc5750506000910152565b6000815180845261194d816020860160208601611909565b601f01601f19169290920160200192915050565b60006020808301818452808551808352604092508286019150828160051b87010184880160005b838110156119e857603f19898403018552815160a08151855288820151898601528782015181898701526119be82870182611935565b60608481015190880152608093840151939096019290925250509386019390860190600101611988565b509098975050505050505050565b80356001600160a01b0381168114611a0d57600080fd5b919050565b600060208284031215611a2457600080fd5b61183f826119f6565b634e487b7160e01b600052604160045260246000fd5b600067ffffffffffffffff80841115611a5e57611a5e611a2d565b604051601f8501601f19908116603f01168101908282118183101715611a8657611a86611a2d565b81604052809350858152868686011115611a9f57600080fd5b858560208301376000602087830101525050509392505050565b60008060408385031215611acc57600080fd5b82359150602083013567ffffffffffffffff811115611aea57600080fd5b8301601f81018513611afb57600080fd5b611b0a85823560208401611a43565b9150509250929050565b60008083601f840112611b2657600080fd5b50813567ffffffffffffffff811115611b3e57600080fd5b6020830191508360208260051b8501011115611b5957600080fd5b9250929050565b600080600080600060608688031215611b7857600080fd5b853567ffffffffffffffff80821115611b9057600080fd5b611b9c89838a01611b14565b9097509550602088013594506040880135915080821115611bbc57600080fd5b50611bc988828901611b14565b969995985093965092949392505050565b60008060408385031215611bed57600080fd5b611bf6836119f6565b9150611c04602084016119f6565b90509250929050565b60008060408385031215611c2057600080fd5b611c29836119f6565b9150602083013567ffffffffffffffff811115611aea57600080fd5b600060208284031215611c5757600080fd5b813567ffffffffffffffff811115611c6e57600080fd5b820160a0818503121561183f57600080fd5b600080600060608486031215611c9557600080fd5b611c9e846119f6565b95602085013595506040909401359392505050565b60008060408385031215611cc657600080fd5b50508035926020909101359150565b600181811c90821680611ce957607f821691505b602082108103611d0957634e487b7160e01b600052602260045260246000fd5b50919050565b634e487b7160e01b600052603260045260246000fd5b634e487b7160e01b600052601160045260246000fd5b60008219821115611d4e57611d4e611d25565b500190565b600060018201611d6557611d65611d25565b5060010190565b828152604060208201526000611d856040830184611935565b949350505050565b6020808252602c908201527f46756e6374696f6e206d7573742062652063616c6c6564207468726f7567682060408201526b19195b1959d85d1958d85b1b60a21b606082015260800190565b6020808252602c908201527f46756e6374696f6e206d7573742062652063616c6c6564207468726f7567682060408201526b6163746976652070726f787960a01b606082015260800190565b6000808335601e19843603018112611e3c57600080fd5b83018035915067ffffffffffffffff821115611e5757600080fd5b602001915036819003821315611b5957600080fd5b601f821115610adc57600081815260208120601f850160051c81016020861015611e935750805b601f850160051c820191505b8181101561074457828155600101611e9f565b67ffffffffffffffff831115611eca57611eca611a2d565b611ede83611ed88354611cd5565b83611e6c565b6000601f841160018114611f125760008515611efa5750838201355b600019600387901b1c1916600186901b178355611f6c565b600083815260209020601f19861690835b82811015611f435786850135825560209485019460019092019101611f23565b5086821015611f605760001960f88860031b161c19848701351681555b505060018560011b0183555b5050505050565b81358155602082013560018201556040820135601e19833603018112611f9857600080fd5b8201803567ffffffffffffffff811115611fb157600080fd5b602082019150803603821315611fc657600080fd5b611fd4818360028601611eb2565b505060608201356003820155608082013560048201555050565b83815260406020820152816040820152818360608301376000818301606090810191909152601f909201601f1916010192915050565b60006020828403121561203657600080fd5b5051919050565b60008282101561204f5761204f611d25565b500390565b600081600019048311821515161561206e5761206e611d25565b500290565b60006020828403121561208557600080fd5b8151801515811461183f57600080fd5b6020808252602b908201527f496e697469616c697a61626c653a20636f6e7472616374206973206e6f74206960408201526a6e697469616c697a696e6760a81b606082015260800190565b600082516120f2818460208701611909565b9190910192915050565b60208152600061183f602083018461193556fe360894a13ba1a3210667c828492db98dca3e2076cc3735a920a3ca505d382bbc416464726573733a206c6f772d6c6576656c2064656c65676174652063616c6c206661696c6564a2646970667358221220542f48800bdc57661038366a782941dfd0e6a3ba881fa90190cd42ccf128528264736f6c634300080d0033",
  "linkReferences": {},
  "deployedLinkReferences": {}
}